:2000000000400020BDF6000001C9011001C9011001C9011001C9011001C9011001C90110AB
:1C00200001C9011001C9011001C9011001C9011001C9011001C901103FC9011089
:20003C002DE9F04FADF13C0D01F074F9B54DB6484FF0000805F1600210380790521C089284
:20005C0001E040462870A868B74A41464FF0FF3300F002FF00280990F5D0404605900DF1EC
:20007C001A0105AA06A810F0CFFAB3A100280D9140F09F84BDF818000127102840F0828057
:20009C0068789DF81A1088427CD1059C20884FF6FF71814276D02678913E5FD01F3E71D14C
:2000BC00607816282CD020797E281DD07F280FD00090404646460190424602964FF4B761B2
:2000DC000392BEA304963A460D980BF0D1FC36E020890090464601964246029240F2B351C3
:2000FC000396C0A30492EEE7207A00904646019640F2AE51029603220396C1A30496E3E7E1
:20011C0020794646434600904246414601960D980293CAA303920222049140F296510BF0D6
:20013C00A7FC6E6A8EB94FF6FD709C499C4A00904346102007F068FC6E6AC3B22BB12179FD
:20015C0004F1080000F08CFE1CE046F0010638466E620AF0B9FB47462C6113E060780E28BC
:20017C0010D1404646460090444643464246019640F2795102940D980393CAA304923A465E
:20019C000BF076FC0598002800F01384002F00F0108411F012FF00F00CBC4046474600906A
:2001BC0046469021019701220296CEA30397484604960BF05DFC9AF8080000280FF23439DC
:2001DC0000F03182401E00F0BF80401E00F09E80401E00F0E783401E67D0401E44D0401E4A
:2001FC0003D00A3800F0B383E0E3686A4008C0F0DD832F69002F00F0D983A87807F1080682
:20021C00401CA870C64900967A883B79102007F0FBFB5FFA80F9B9F1160F14D06F6AB9F1CE
:20023C00040F10D037F001076F6208D14FF6FD705A495B4A00900123102007F0E5FB484693
:20025C000AF042FBB2E3286900790090A8784746464640F201614446019002220297C2A312
:20027C0003960D98049497E29AF80B700AF10904002F0CBFC8A0CBA00090464647464346FF
:20029C004046019040F209410297012203960D980493C6A30BF0ECFB404600909F4922882B
:2002BC004346102007F0B0FB80E39AF809000AF109040D2814BFCAA0CCA06778002F0CBF0A
:2002DC00CDA1D2A14646474601220090D4A301914046029040F28A4103970D9804960BF063
:2002FC00C7FB27780D3F09D07F1E40F05F8301200146641C224605F02FFF57E30121404658
:20031C00F7E7C046D80A0020900B0020278841F2101022463F1A09D0103F40F047832079A2
:20033C006188641DE6E7C0460F0000C010795188521D08F021FD39E370726F6A6563745F3C
:20035C007A65726F2E6300C020880FF2283B0FF2383E0FF24C3CB0F5007000F0D280B0F568
:20037C0072601FD0103840F02183B4F8050048B1401E04D0401E08BFCDF828B004E0CDF83D
:20039C0028E001E0CDF828C02079012840F00E830A9ED1A0D4A740F253519AE065EB0000F4
:2003BC00A7190100B4F8050000286FD0401E6AD0401E08BFCDF82CB06AE0C046526563651B
:2003DC00766965642047415454204D6573736167652E204F70636F64653A203078253032F3
:2003FC007800C0464D54552053697A65206368616E67653A20256420627974657300C046FC
:20041C00466C6F7720636F6E74726F6C2076696F6C617465642E204F70636F6465206F66F2
:20043C00206F6666656E64696E6720415454206D73673A2030782530327800C04F75746700
:20045C006F696E67205246204649464F2066756C6C2E2052652D7363686564756C652074F1
:20047C0072616E736D697373696F6E206F66206D73672077697468206F70636F6465203088
:20049C00782530327800CDF82CE001E0CDF82CC02779CFB17F1E40F08982C1A740F2F9419A
:2004BC0015E0C04648434920436F6D6D616E6420436F6D706C657465204576656E74207265
:2004DC006563656976656400C5A74FF49E61C6A00B9E00900197029644460394434604936D
:2004FC00C5A357E14556454E545F4C4F475F454E4400C046616C735F68616E646C65722E96
:20051C006300B4F8050068B1401E04D0401E08BFCDF830B008E0CDF830E005E05906010094
:20053C00DDFE0010CDF830C04046474600904646F0210197012202960C9B03974846049603
:20055C000BF096FA2779002F40F030824FF4A471BDA34046474600904846019702964446A0
:20057C0003944246049216E15265747279696E67206D6573736167652077697468206F707F
:20059C00636F6465203078253032782E20417474656D707420256400446973706C617969C8
:2005BC006E6700C053656E64696E6700426F6E644D67722052657175657374656420706156
:2005DC007373636F64652E205765206172652025732070617373636F6465202530366400E3
:2005FC00427574746F6E203100C046C0427574746F6E203000C046C01B5B33336D72656C2E
:20061C0065617365641B5B306D00C0461B5B33326D707265737365641B5B306D00C046C08C
:20063C002573202573002088B0F5807000F01981B0F5807000F0EE80B0F5807000F0B480DB
:20065C00B0F5616054D0203840F0B081277987B37F1E40F0AB8160790090A0790190E079FC
:20067C00474646460290ABA3039740F22751049690E0C046496E6469636174696F6E73207C
:20069C00656E61626C6564004E6F74696669636174696F6E7320656E61626C656400C04628
:2006BC004E6F74692F496E642064697361626C656400BA48414628220CF0E4FEB748641DB1
:2006DC00272221460BF04AFDB44EA8A702A04FF4A461A8A378E0C046446174612053657264
:2006FC007669636500C046C053747265616D00C0A178AB4A601D0DF08FFD2779661D0FF20D
:20071C00902B0FF29029FFB17F1E40F04F81A44B91A094A7009042460197414602930D982F
:20073C00039294A30122049140F2BF410BF0A0F9A869627907210FF023FC377807B1CB46A9
:20075C00C6A040F2C6411BE0954C83A0C1A7009043464246019740F2B34102940D98039347
:20077C0084A3049201220BF083F9A869327806210FF006FC377807B1CB46B2A040F2BA412C
:20079C0000904746CDF804B04646029744460396B6A304940D9801220BF06AF906E1C0465B
:2007BC00425554544F4E3100A178079A601D0DF033FD277987B17F1E40F0F88040F20B2131
:2007DC00AEA34046474646460090019702964446039442460492DDE740F20721AEA3F0E7C8
:2007FC00425554544F4E3000427574746F6E205365727669636500C043434344204368616B
:20081C006E6765206D73673A2025732025733A20257300C0A178604A601D0DF0FDFC2079F0
:20083C00401E0DD0401E07D0401E40F0BF804FF49971A0A346468CE64FF48E71A5A3F9E767
:20085C004FF48371ABA3F5E7496E2070726F636573734C756D696E4366674368616E6765EA
:20087C0000C0A178D14A601D0DF0D6FC27793FB37F1E40F09B80404647460090464640F241
:20089C008111019701220296A6A30397A1A004960BF0EEF8618803290ED12079621D0FF0AD
:2008BC0099FEC14895F860704668012F7ED1601D0CF070FC304622E04FF4C971A0A324E0D1
:2008DC0040464746009046464FF4B071019701220296A6A303978FA004960BF0C9F86188C5
:2008FC0001290FD12079621D0FF074FE6079012814BFAF4808980CF04DFCAB48406809F004
:20091C004BFC53E04FF4B8719FA34046009081A023E6C04656616C7565204368616E6765EA
:20093C00206D73673A204461746120536572766963652053747265616D3A20253032783A50
:20095C00253032783A253032782E2E2E00C00820414604F025F929E04C454420536572769A
:20097C00696365004C45443100C046C0537472696E6700C056616C7565204368616E6765C4
:20099C00206D73673A2025732025733A202573006F6666006F6E00C0A42C0020900C0020B4
:2009BC00900B00209AF8090006F0CCFD50460FF0A5FCE86800F058FA002840F07F81E86896
:2009DC0000F056FA82469AF808000AF1090430F0010705D002281CBFB648417840F00281E5
:2009FC00B54BB44890F800909AF808700B210A4601FB0936414630460CF044FD2078238889
:200A1C00F770A27861883071181270712079A6F1010E4FF0090CB071A64FF271081279788D
:200A3C0030724FF6FF701EF8012F80EA02200822C30BDF0300F0BE8041F2210383EA400363
:200A5C001846B8E01B5B33316D4C4544301B5B306D00C0464C45443000C046C01B5B333279
:200A7C006D4C4544311B5B306D00C0465475726E696E6720257320257300C046496E204753
:200A9C00414D455F425554544F4E5F4C53535F5247425F494400C046496E2047414D455F5F
:200ABC00425554544F4E5F4C53535F4F46464F4E5F494400496E2070726F636573734C4DBB
:200ADC004F66664F6E56616C75654368616E676500C046C0496E2070726F63657373487982
:200AFC00737465726573697356616C75654368616E676500496E2070726F63657373546893
:200B1C00726573686F6C6456616C75654368616E676500C06C73735F68616E646C65722E08
:200B3C006300C046496E2070726F6365737352474256616C75654368616E676500C046C076
:200B5C00496E636F727265637420646174612073697A6520666F72205247422076616C7501
:200B7C0065206368616E676500C046C0496E2070726F636573734F66664F6E56616C7565FD
:200B9C004368616E676500C0496E76616C6964206C656E67746820666F72206F66664F6E4B
:200BBC00206461746100C046CC1D0020D81D0020CD1D00204000521E80B27FF439AFBCF147
:200BDC00010C7FF430AF3B4A7072001209F101071029B07207F00F00107003DA491C1046A6
:200BFC00C9B241709AF8080000287FF4E6AA3148007810290CBF8346C34647464046464682
:200C1C000FF2481900900122019753A302964C210397484604960AF02BFF404600904D21A6
:200C3C0001970122029650A30397484604960AF01FFF20484078B8427FF7AFAA1E4E1E4BBA
:200C5C000BEB07010B20009701F00F014843361871780191185C0290B0780122812151A37C
:200C7C0003904046049048460AF002FFF07800907079019030790290B0798721012254A38A
:200C9C0003904046049048460AF0F2FE307A0090F0790190B07A0290707A8D21012255A370
:200CBC0003904846CDF810800AF0E2FE7F1CFFB2BFE7C046D0190020D21900200998C00853
:200CDC00FFF4C1A94046474600904646444640F225110197012202964FA303945C48CDF835
:200CFC0010800AF0C5FE5B4807786FB195F860704468012F08D108980CF04CFA204609F0F6
:200D1C004BFA544940460870287801287FF49BA94E484D4980220A230090102006F074FE34
:200D3C00C0B200283FF48DA940464746009044464346019740F262710296012203940D984A
:200D5C0004933CA30AF094FEFFF77DB96576656E745F6C6F672E63004556454E545F4C4F79
:200D7C00475F424547494E00494E4445582C53504152452C5350415245322C545950452CBA
:200D9C00534552564943455F555549442C504152414D5F49442C444154415F4C454E2C4314
:200DBC00524300C04576656E74204C6F67203A2025647C28307825303278292830782530E2
:200DDC003278297C28307825303278297C00C0467C28307825303278297C283078253032E7
:200DFC00782928307825303278297C2830782530327829007C283078253032782928307886
:200E1C0025303278297C2830782530327829283078253032782900C0496E206C73735F508A
:200E3C00726F63657373506572696F6469634576656E74004552524F523A207772697469C3
:200E5C006E6720534E5600C0019D0000380B0020300B0000CC1D0020DFF800F0F99B011019
:200E7C00DFF800F089840110DFF800F04FBF0110DFF800F0F1BF01102DE9F04F09AF984618
:200E9C00ADF12C0D059097F804A007923E88069108460EF01FF90024FF21099107464F497A
:200EBC00089031A09FB17F1E0DD021460091019102910322039130A304914FF4FE710AF0F9
:200EDC00D7FD0A204CE001F1040B032502E001F1020B0125B542894622DD06EB0807BD42D8
:200EFC0018DBBD4205DDBAF1180F10D0BAF1120F0DD006980799C068424680190BF02EF9FE
:200F1C00BD421ADCABF800700898099015E040F2112101E04FF4027122461EA30D2404E046
:200F3C00224640F2032124A307240092019202920392049203220AF09BFD0998FF280ED0A4
:200F5C00D9F80C0058B107684FB108EB060080B2089A0090079B05984FF48071B8472046EB
:200F7C000BB0BDE8F08FC0466C73735F736572766963652E6300C0464174747269627574E8
:200F9C006520776173206E6F7420666F756E642E00C046C0496E76616C69642076616C7525
:200FBC0065206C656E677468207761732072656365697665642E00C0416E20696E76616C65
:200FDC006964206F666673657420776173207265717565737465642E00C046C0D01C002024
:040FFC0030BF70474B
:20100000B412000018100000C5EC0000FDB301106DC00110FDAE011099B501100000000017
:08102000000000002D0000009B
:20102800B01200003C100000B1C00110A9BF011067C0011069B80110000000000000000035
:041048003000000074
:20104C00B012000060100000BDC00110CDB30110D9BD01106DB3011000000000000000005B
:04106C00310000004F
:20107000000000007423002004000000000000000000000020000000E8C901103000000093
:20109000281000007C2300200400000000000000000000000C000000D8CA0110180000006E
:2010B0004C1000008423002004000000000000000000000024000000F0CA011018000000F2
:2010D000000000008C2300200400000000000000000000001000000018CA01102C000000FE
:2010F000001000009C230020040000000000000000000000200000006CCA01102400000062
:20111000FFFFFFFFA42300200400000000000000000000002800000090CA01102400000021
:20113000FFFFFFFFAC2300200400000000000000000000001400000008CB011018000000A0
:20115000FFFFFFFFB423002004000000000000000000000058000000B4C90110340000006E
:20117000FFFFFFFFBC2300200400000000000000000000001000000020CB0110180000003C
:20119000FFFFFFFFC42300200400000000000000000000001C000000B4CA01102400000069
:2011B000FFFFFFFFCC2300200400000000000000000000003800000044CA01102800000091
:2011D000FFFFFFFFD42300200400000000000000000000005400000078C901103C00000006
:0811F000020000006838010054
:0411F80001000000F2
:0411FC0000000E00E1
:0412000000000F00DB
:0412040032000000B4
:0412080001000000E1
:04120C007422002028
:0412100000020000D8
:0412140000000000D6
:0412180001C90110F7
:04121C0000000000CE
:0412200000000000CA
:0412240008000000BE
:0412280000002200A0
:04122C0090200020EE
:0412300000000000BA
:0412340000000000B6
:0412380008000000AA
:04123C00002200206C
:0412400000000000AA
:0412440000000000A6
:04124800080000009A
:04124C00000000009E
:04125000000000009A
:041254000000000096
:041258000000000092
:04125C00010000008D
:041260002821002021
:041264000600000080
:041268000100000081
:04126C00C01F00207F
:04127000000000007A
:041274000000000076
:041278000002000070
:04127C00000000006E
:02128000290043
:02128200010069
:02128400250043
:02128600300036
:02128800310033
:02128A002D0035
:02128C0001005F
:01128E00015E
:08129000030000000C3801000E
:0812980000000000000000004E
:0412A0000000010049
:0412A4000000030043
:0412A80013C401105A
:0412AC002B1A0100F8
:0412B000B812000070
:0412B400B81200006C
:0412B8000000000032
:0412BC0028230020C3
:0412C000CF1B01003F
:0412C4002000000006
:0412C80024370100C6
:0412CC0010360100D7
:0412D00029C101101F
:0412D400E302010030
:0412D80057060100B4
:0412DC00A1C7011095
:0412E000A3C701108F
:0412E4000000000006
:0412E8005F3601006C
:0412EC006832010063
:0412F0008032010047
:0412F4005032010073
:0212F8000200F2
:0212FA000900E9
:0212FC000100EF
:0212FE000000EE
:0113000001EB
:041304005D1B01006C
:041308007502010069
:04130C00411101008A
:04131000890501004A
:04131400AD02010025
:0413180019F50000C3
:04131C00DDCA000026
:04132000351E010075
:04132400F5E80000E8
:0413280015C70110D4
:04132C0025C70110C0
:201330002DE9F04FBC4C601C04F10801ADF1AC0D0DF086FE88A600200090074629964FF4C1
:201350000F7101970122029787A30397304604970AF094FB04F16C0528463946E76111F0AF
:20137000E1F904F1840004F19001E5600AF020FDA06170B900973846019040F24E21029025
:201390000322039088A3049030460AF077FB11F0C5F904F1780004F19C010AF009FD606165
:2013B00078B900973846019040F2552102900322039086A3049030460AF060FB11F0AEF924
:2013D0006069964910F04DFD70B10097384601904FF4177102900322039084A304903046FE
:2013F0000AF04CFB11F09AF905A839462422082311F090F98B4E4FF47A7932250D20DFF877
:20141000208232680B9005AB04F5B870B9FBF2F18AB26A43414611F079F90E2032680B9037
:2014300005ABB9FBF2F081B2289104F5CA704D432A46414611F06AF911F064F985B2384639
:201450000FF092F904200FF08FF9774A10680109FCD210F0030F10D0744B00F00300012869
:2014700005D1032010F0E4FB18680028FCD1384610F0DEFB18680028FCD1284611F03EF99D
:2014900008F0A2FD0A2009F0F1FF4FF08055D5F8B801C1694FF481608847D5F8B801416AAA
:2014B0004FF481608847D5F8B801C16A4FF4816088475F480126624A604B06605D4D1A60D6
:2014D0004FF0FF39C5F82890ADF83C705D4858608DF89860584969605E4898605B4A2E60AA
:2014F000594D2A60A8605A49696026AA40F20530314603F0D5F840F2063002210FAA03F093
:20151000CFF804F1C8024FF44270112103F0C8F804F1EE0240F20730182103F0C1F804F52F
:201530008370394620220BF0B3FF04F5837804F1EE0538462A5C401CC0B229180B78092B94
:2015500018BF082B02D11F2AC0F286808018C0B22028EFDB85E0C04670726F6A6563745FC0
:201570007A65726F2E6300C0496E697469616C697A696E672074686520757365722074612A
:20159000736B2C2068617264776172652C20424C4520737461636B20616E6420736572763B
:2015B000696365732E00C0464572726F7220696E697469616C697A696E6720626F617264E6
:2015D000204C45442070696E7300C0464572726F7220696E697469616C697A696E6720626F
:2015F0007574746F6E2070696E7300C04572726F72207265676973746572696E6720627543
:2016100074746F6E2063616C6C6261636B2066756E6374696F6E00C0D80A002045C3000058
:201630002DD20000A0380100004003400C006842282008600400024000040020400400200B
:20165000CE1200110010001110050020BEB8001100100811008000D5491C521E40460AF0D9
:2016700083FDCDF800803D46299801974FF42571029532460395ADA304950AF0FFF9C82076
:20169000ADF83E003C278DF899506423ADF840503146ADF842700DF19902ADF844304FF407
:2016B000447002F0FDFF4FF4457002210DF13E0202F0F6FF40F21330022110AA02F0F0FF05
:2016D00040F2113002210DF1420202F0E9FF40F21230022111AA02F0E3FF9E4F10200622DD
:2016F000F423394606F096F910200722F423394606F090F9394610200822F42306F08AF9E8
:20171000394610200922F42306F084F93946102032461E2306F07EF92F460E9530468DF86D
:201730009C500EA98DF89A604FF481628DF89B0004238DF89D70884D00911020294606F07D
:2017500069F90DF19A004FF48062334600902946102006F05FF90DF19B0040F202423346DC
:2017700000902946102006F055F927A840F20342334600902946102006F04CF90DF19D0022
:2017900040F20642334600902946102006F042F9724910204A4606F03DF9714910204A46C5
:2017B00006F038F91025DFF8ECA2BB48BB4A0095132351460190284606F02CF9B84E04F1D9
:2017D000D9003A46152300903146284606F022F903203146062201238DF89E000DF19E0637
:2017F0002846009606F016F9A846BE48BC4ECDF8008005235146019006F10C02284606F0D4
:2018100009F9B94605200090ACA3CDF80490D821CDF808900122CDF80C90A4A0CDF81090D7
:201830000AF02CF9B04D67782878800010F003FC0146AE48AB46C16049B34FF6FF700EF081
:2018500049FD9BF80000800010F0F5FB0146A7480161E1B14FF6FF700EF03CFDA34AC8491C
:2018700040460723009014320191514606F0D2F84E4607200090FE210196012202968FA3FB
:201890000396B2A004960AF0F9F8984807709BF800006678800010F0CEFBBA4D0146E96020
:2018B000D9B14FF6FF700EF015FDB749404605F14C02009006230191514606F0ABF84F46F0
:2018D00006200090EB210197012202977BA30397A3A004970AF0D2F82E70AC48AD4ACDF83A
:2018F00000805146072301901032404606F092F8072672A700964846CDF80490F8210122BF
:20191000CDF808903B46039099A0CDF810900AF0B5F89BF80000800010F08DFB01469C483B
:2019300000298246416139D01CE0C0464E616D6520696E20616476657274446174612061E0
:20195000727261793A201B5B33336D25731B5B306D00C046B9040100D55400004510010028
:20197000CD1201004FF6FF700EF0B4FC40460090BA49019147490AF118020E2306F04AF85C
:201990000E2000904846019040F251110290012203903B460490CAA00AF070F8C748C64F79
:2019B0003C49CDF800803346019007F11002404606F030F80FF2183B00964E46D821019687
:2019D00001220296C8A30396584604960AF056F8434904F1300088600FF2483900900122EA
:2019F00001964B460296E721039630A004960AF045F83E4904F138008860009001220196EF
:201A10004B46029640F20F11039650A004960AF035F804F14000A860FC210090012201964D
:201A3000354602954B4603954DA004950AF026F8584804F14801C1600091012201954B46E3
:201A500002954BA0039540F2071104950AF016F804F15000CAF81000009040F26111019590
:201A7000012202954B46039595A004950AF006F804F15800F860B1460090E72101950122C0
:201A9000CDF80890B3A3CDF80C905846CDF8109008E0C046F90B0100F43701000C140020C0
:201AB00031CF000009F0EAFF22E0C0466C65645F736572766963652E6300C0465265676989
:201AD00073746572656420736572766963652C202564206174747269627574657300C0461C
:201AF000B41E0020C4340100694F0020CC1B002012A8314628220BF0CBFCB1491CA82822C7
:201B10000AF032FB3046012112AA07F03BF9012012AA014607F036F93046012112AA04F07D
:201B300021FB012012AA014604F01CFB304628211CAA04F003F80120142112AA03F0FEFFD4
:201B5000A04D6F782878002F3CD125E0627574746F6E5F736572766963652E6300C046C07D
:201B7000646174615F736572766963652E6300C06C73735F736572766963652E6300C046E1
:201B900014340100841A002040340100F0340100D8180020D01C002004F1200129620EF0D9
:201BB0005DFF05F15407CDF80090024605F14400019005F11C06029783490396AB78404641
:201BD00005F028FF814904F12802404605F022FF60780EF043FF7E490246404605F01AFF99
:201BF00060780EF03BFF7B490246404605F012FF0EF0C8FA04F16005404680220A237649FF
:201C1000009505F007FFC0B250B3012648460DF146012A46ADF8466008F022FC03206A1C3B
:201C30000DF14601ADF84600304608F019FC6B490095404680220A2305F0ECFEC0B2C8B179
:201C5000484600900190029003900490299840F29A7132464FA309F011FF0BE0B8310100C6
:201C7000484601212A4606F0EDFF6A1C0120032106F0E8FF04F5947549462422082328463A
:201C900010F048FD41F28837012604204FF4FA722899C4F840012B464A4307FB01F05049BB
:201CB000C4F83C0104F5A670A4F8386110F02EFD2BB0BDE8F08FC046501C00206C3401007A
:201CD000616C735F736572766963652E6300C04667616D655F627574746F6E5F7365727619
:201CF000696365322E6300C052656769737465726564207365727669636520666F72204238
:201D10007574746F6E20536572766963652032202D2D202C20256420617474726962757438
:201D3000657300C0526567697374657265642063616C6C6261636B7320746F206170706C5D
:201D500069636174696F6E2E2053747275637420257000C0526567697374657265642063B3
:201D7000616C6C6261636B7320746F206170706C69636174696F6E20666F722047616D655E
:201D900020427574746F6E732E20537472756374202570004552524F523A20556E61626CC6
:201DB0006520746F20777269746520736E76537461746520746F20464C41534800C046C091
:201DD000B133010028100020DBF800003D150100518801103181011001150100019D00002E
:201DF000311D01002DE9F04FD44C04F118012046ADF1340D0DF024F900264FF6FF706670F2
:201E10000121208204F1A4000EF000FB022104F1C8000EF0FBFA042104F1EC000EF0F6FA95
:201E30004FF0040A04F1440810224046314684F802A00BF02DFB04F154091022484631460B
:201E50000BF026FB04F11C073E6004F10A052E70E671267207206072CDF80080DFF8F88280
:201E7000022210200346414605F0D4FD102003224146CDF80090034605F0CCFD1020524668
:201E900041460097134605F0C5FD4FF0080B4FF0030905F12A00079005F17900089005F1B3
:201EB0001E00099005F15A000A9024350B9517E06078A28FE18FB4F84050B4F84230062880
:201ED0000ED1ADF80A20ADF80C10ADF80E50B948ADF8103010F0C3F8012002A90AF058FFC2
:201EF000A069B34A31464FF0FF33FEF7BBFF071CF6D0059606A80DF11A0105AA0EF08AFBB8
:201F1000002840F0BD81BDF818102078102940F0B3819DF81A10884240F0AE81059D2988CE
:201F30004FF6FF728A4200F09C812B78A23B00F07F812E3B40F0A081A978B046002900F0A8
:201F50003B81891E00F00A81491E012940F2D980891E00F09C80491E6FD0491E5CD008394A
:201F700000F05681891E40F0598194F83A30A888052BADF8080047D001208DF812008D4832
:201F900010F06DF894F83A0001281ED004281CD003280DD002280BD00598C188ADF80A1025
:201FB0000189ADF80C104189ADF80E10818927E0A08FE58FADF80A00B4F84030ADF80C50B9
:201FD000B4F84210ADF80E301AE0A08FE9888842D8BF081CADF80A002989E08F8842D8BFC0
:201FF000081CADF80C006989B4F840008842D8BF081CADF80E00A989B4F84200884200DC20
:202010000846ADF8100001E08DF81260A849102002AA05F0FFFC01E1A64810F020F86B784D
:20203000002B40F0FB80E88860822889A0826889E08260480FF024FEF0E0AA88B44910204A
:2020500005F0E8FC0798414606220BF021FA6682A682E682A8792073564810F000F8954894
:202070000FF0FDFF4FF001084FF6FF702379208253B9A879082812BF84F801A005206070DB
:2020900040460FF02DFEC9E084F80190C6E06B787BBB291D07980A68026089888180062317
:2020B000637068892082E8896082288AA082688AE082E878E07294F83A00012818BF02288D
:2020D0000BD1994910201F2205F0A4FC4FF47A7180B2414337480DF0ADFF688900909149C5
:2020F000CDF804A0EA7810202D1D2B4605F092FC97E06878312840F08880E67084F801A03C
:202110008FE06B78002B40F08080A878E3896178032815D0E078257923B9012814BF267128
:20213000E67006E0054304D0804819460DF082FF61780729E2D10620607072E02810002036
:20215000062907D0E578002D08BF84F8019068D00220F1E70720EFE7011501006B78002BB7
:2021700053D1EB78617893B902291DD007291BD0062902D12079012816D1032914D06B4802
:202190000FF07EFD80B901200FF0AAFD0CE00EF065FC0246A0796249009008984346019014
:2021B000102005F037FC68706D78002D2DD135E007000080F01000206B7833BB5C485749FE
:2021D000009002221020034605F024FC59484A46524900901020034605F01CFCED1C099821
:2021F00029680160A98801238180207863700EF035FC024601230A9D6079494900901020AF
:20221000019505F007FCC0B258B184F801B008E0AA8841491020052305F0FCFBB8F1010FD7
:202230002AD1256A45B32D6835B36078A84723E06879132820D12889012808D1607B022800
:2022500005D11C480FF00BFF0EF016FA14E036491020052205F0DEFB81B216480DF0EAFE0F
:202270000AE06888C00B07D3334852462B4900901346102005F0CEFB059808B10FF0A3FE7B
:202290002579E078790830D355EA00032DD0204600788DB9E179257A8DF808100B9A8DF891
:2022B000095013680DF10A052B609288AA8005E005160110141100208DF80890617A8DF88B
:2022D0001010A17A8DF811100EF0C8FB1149024602AB102005F09EFB38B1256A84F801B09A
:2022F0001DB12D680DB15846A847B80803D3134930460AF04DFDF808FFF4F2AD607B401EA9
:202310003FF4D6AD401E7FF4EBAD0EF0B5F9E7E5B1EF000059440110C1170110019D000041
:2023300009450110BDA9000075180100CC1000206C1000207C1000204410002062100020F0
:202350002DE9F04F0F46CD4C0168E16241688068ADF11C0DE060C548A1608047C448E16A3A
:202370000160A168DFF810A34160E168DFF804938160CE49002FA346C1606FD03D68E8788C
:202390008DF80C0028798DF80D0003A810F0B2F9A86808B1C6490160E86808B1C549016062
:2023B000C54C287820706878BE686070A878B268A0703178A2607368E1702E696360EA6928
:2023D00026627968E2620868E06068696062A8697B68A062286A9E68206395F8240084F8BF
:2023F00034001EB900200FF049F900E066617868C06818B900200FF041F900E0A0617868C7
:20241000006918B900200FF039F900E0E0617868406818B900200FF031F900E0206128696C
:202430002062F86881680E6806B9D24ED0494FF001084E60C66881F8018036B900200FF027
:202450001DF94D462E68F86801E04D462E6000685446FB68A0615868E06107E000200FF05E
:202470000DF94D462E684FF001085446361DC749366804F1080350205246B04710B12868EA
:2024900080688047DBF808008047C24E002781463B46BF48777069466061042233703846B7
:2024B0000EF002F90098B0F5801F0CD020B90EF0F3FB07F0A1FA08E00DF080F90FF032FB7A
:2024D0000420708001E00EF0E7FB3846BA4EE0602B68B760986980477060AF4880F8008020
:2024F0003946418014200FF003FCFF211422A0620FF0BDFDE01CFF2102220FF0B8FD142021
:202510000FF0F6FBA54F38603868002114220FF0AEFD002000F052F940460DF02BFCA048A1
:202530000188FF2906D1022101807822001D00210FF09DFD032010F0D9F8042010F0D2F80C
:20255000052010F0CBF8062010F0C4F807200CF09BF9944E0820307006F1240010F0B6F877
:202570000CF050FB06F1360A05200A2152460EF0BFFF38B10020C0F10901401C0AF8011BEB
:202590000A28F8DB3078102108F0FAFD2B68864909200DF10E025E68087001AB102000218A
:2025B000B047A06AE1690A260A309DF80E20761E00F8012BF9D1891EE161DBF80C104846AB
:2025D000884704F120002B68626A059040461E69DFF8D88104F120034146B04710B12868EF
:2025F00080688047B8460EF08DFC5FEA000903D009F07EFC4FF0FF39002643E002986169DB
:2026100010F8062CA0F10C07032A03D1002939D0884737E0A16A9DF810C00A223046491E3A
:2026300011F8013F9C4506D0521E00F10100F7D14FF0FF0A01E05FFA80FA2868BAF1FF0F1B
:2026500000F108001CD038790DF0B8FDB979012904D0022904BF0299887001E0029908707D
:20267000029950460EF08AFE0CE0C04641490010F8440020F823002088210020301B00203C
:20269000006880472868C36904A902AA0DF10F0098470028B2D0D8F800007700C35B6BB9C7
:2026B000761CF6B20A2EF8DB2BE0C0463C270100A10B010045180100582000200A2E20DA7B
:2026D000DBF808008047D8F80010002231F807A0CA53DBF80C108847354850F826206670BA
:2026F0005146304690470646FF206070DBF808008047D8F800107A5A16437E52DBF80C103D
:2027100088470EF0FFFB0746B9451AD007B9294FE069B84238BF071CDBF8080080478146AF
:202730002868016A206A8847626A28681F49059B521C6262C6683846B047DBF80C1048467F
:202750008847E7682968A0681431AFB9D8F800000A270026835B33B10969A0688847296842
:20277000D8F8000014317F1E06F10206F2D107E05C2300209FDD00000969884729681431BC
:2027900009684FF0FF3088472DE7C046D5100100BD1801000C200020EC230020142D0020C9
:2027B000501D00203C150020262D002005020100983501008EC2F528C42C00202DE9F84FE8
:2027D000DFF8BC13DFF8BC23DFF8BC5308700821002010600D23DFF8B4034FF44E72017044
:2027F00043808280DFF8A8030560AC7EDFF8A4030470FF2CE97E417008BFFF292A7F827034
:202810006B7FC370AE7F0671ED7F457115D1FF2A08BFFF2B11D1FF2E08BFFF2D0DD1DFF80E
:2028300078130A7802704B7843708A788270CB78C3700A79027149794171DFF860130278FB
:20285000DFF85C83DFF85C93DFF85C730A70FF2543784B7082788A70C378CB7002790A71D2
:202870004079487188F8005088F8015088F8025088F8035088F8045088F805500020CB49B3
:202890000880D9F83440CA49607808702278C9493A70A0780870A2681079C74A411E11708E
:2028B000E078C649C64A0870E068106008B90EF0E5FE2069C34E306008B90EF0DFFE306861
:2028D000DFF804A301688847326852F8041F50468847BE48BE49CAF82000CAF82410606918
:2028F000BC49086008B90EF0C9FEA069BA49086008B90EF0C3FEE069B849086008B90EF070
:20291000BDFEDFF8DCB2B74C9BF804000FF0F0F90028206075D09BF80500B34E0FF0E8F99F
:20293000002830606DD09BF80600DFF8C0A20FF0DFF90028CAF8000063D09BF807000FF033
:20295000D7F9AB49002808605BD039789BF80000891C484380B20FF0CBF9A6490028886080
:202970004FD03878002862D0BBF80210484380B20FF0BEF9A04A0028506042D038780FF063
:20299000B7F99E49002808603BD0387840000FF0AFF99B490028086033D038781821484373
:2029B0000FF0A6F9974A106058B3387840010FF09FF99549086020B3387800010FF098F92B
:2029D00092490860E8B1387800010FF091F990490860B0B13878302148430FF089F98D4A4B
:2029F000106070B18C483978007848430FF080F98A4A106028B138780FF07AF988490860BE
:202A100018B9BDE8F14F07F067BA4FF0000B09E00FF03EF900214180816001800223037192
:202A30000BF1010B39785FFA8BF08842F0D32268694F0120107121680D73206845732168B6
:202A50008D732068C57321680D7400212068457400202268D172A02221684871032120689D
:202A7000C28001720720226850720021206881722821206801224182C2760020216848772B
:202A90000022206880F85E200121226811770120216881F85D0001223068027131680D738B
:202AB0003068457331688D733068C57331680D7400213068457400203268D1720022316809
:202AD0004871306882724FF420703168C88008818A7401213368D974DAF800201573DAF810
:202AF00000104D73DAF800209573DAF80010CD73DAF8002015740022DAF800104D74012178
:202B1000DAF80030DA720023DAF800201171DAF800104B71DAF80010C88008818B7205204D
:202B3000DAF800209374DAF800103E4AC874106880473968054608688047396851F8042F67
:202B500000209047D9F80C101C4B0A881878364902430A802846354A136898470C213448BA
:202B70000FF0B0FD40460FF0A9FD0FF0A3FDBDE8F44F034800784FF4005108F001BB00BF1D
:202B90006E4F0020044F0020B63F0050604E0020084F00202C4E0020E81200503C4E0020BD
:202BB000344E0020C83801007B4F00200C4F00206D4F00206B4F0020724F00206C4F00208B
:202BD000F04E0020F44E00207C4B0020011D0100211D0100F84E0020FC4E0020B42B002011
:202BF0001C230020104F0020144F0020184F00201C4F0020D02C0020684E0020004F0020F1
:202C1000FC2C0020804E0020844E0020884E00208C4E0020904E0020CB220020002D002034
:202C3000042D0020381B0020544F00203C1B0020F84D00202DE9F84FC04CA178FF2904BFB4
:202C500000200EF01BFDA0780EF044FF044604F1680504F190062968086810B10021E18357
:202C70000CE0A87B002804BFA97E002906D13078002801BF207F0128608CE0832189E08B67
:202C90004118491C618120460FF010FD01281EBFAB480178012904D121890020491CE0830F
:202CB00061814FF6FF77A87E01280DD1AA8B618920890FF0F7FC38B1218960894A1C93B259
:202CD00098421BD0A88B0FE03078012816D17288618920890FF0E6FC80B1218960894A1CAD
:202CF00093B298420AD0708892B2904206D03818608180B20FF0D2FC3F18E78304F59679EE
:202D100099F8040020B120890021401CE183608104F12E07A87E012811D12189A88B4B1C33
:202D30009BB298420BD160810FF0B8FC8046B988288C01FB080820460AF0DAFE01E0B7F85D
:202D50000480B4F81EC022687E4ED2F80CE00CF1010000FB08F340F6C41000FB03F18E448A
:202D7000C2F80CE03668DFF8E0E13678BEF80080764AB609032E11D1D67BF60748BF4FF05D
:202D900000080BD408F101081FFA88F6012E12BF668AB9F8066006F2DC5600E0668A5E4301
:202DB0004FF4C87AB6FBFAF6761C6661AEF80080A3614FF0180894F806A084F820C008FB6A
:202DD0000AFADFF88CC1DCF800E023680EF1080656F80AB0C3F810B094F806A008FB0AFAB3
:202DF000CDF800A0D3F80CB0D4F814A0ABEB0A0ADDF800B046F80BA094F806A008FB0AFA06
:202E100056F80A609E600EF10C06A37908FB03F30EF10C0EF65C06F0F00646F002060EF82B
:202E300003604FF0000ADCF800E0A6790EF1020308FB06F623F806A0464BA6791B68760195
:202E500003F1140AD4F814B05AF806A00AEB4B0A03F1140B4BF806A0AD7E022D0BD1A5792E
:202E70006D0103F1140697F800B056F805A000FB0BAA46F805A0BD88D27BA779D60736D567
:202E900008FB07F70EF10802D659A6F5A86A0EF1080646F807A0A77908FB07F7D25927686F
:202EB000511A3961BA6003F11402A1794901575807F5F667575003F11401A279520189586E
:202ED000C9F800106843244AA179156B03EB41162968401AA0F51670F0612049A07903EB52
:202EF00040100B78012B14D10121C17214E003F114027F01D1592A464243A1F5E661A2F578
:202F100016729142DED3082120460FF0C3FB012011E0916A4A78C272A179DCF8000008FB55
:202F300001F281182268516007200D49087020460AF060FB0020BDE8F28F00BF684E00202F
:202F5000784F0020084F00201C2D00205C4D0020804E0020844E0020C8380100734F00200E
:202F70006F4F00202DE9F84F0C46E00788B00BD50EF09EFE28B100218160B348006800B12C
:202F9000804784F001005CE1A0070FD50021002306910591049103930291019100910122A8
:202FB0003C200FF073FB84F002004AE11D256007A64EA74F40F18A80002107918B46A54852
:202FD0008178FF2904BF00200EF058FB386890F8A0000EF07FFD80463868C07A98F8269163
:202FF000022818BF032808F5907A06D106F10D000FF048FB08B906F1070B514648460FF083
:203010003DFB88B33868807A002818BF012804D1314650460FF02EFB04E0524649463046E0
:203030000FF024FBFF2834D005FB00F906EB090506225146E81D0EF051FC16F80900396878
:2030500040F00209E81D07900622887E00F0010088F8260105F1010A386800F1140108F51F
:2030700090700EF03BFC14E0514648460FF0FAFA78B15246494630460FF0F8FAFF2808D049
:2030900006F10D01454348190FF0FCFA08B949F0020908F12C004B4601780691428912098C
:2030B00005920122B8F822100491C0880799029140080390CDF804B0CDF800A0002098F8EB
:2030D00006100FF0E3FA84F00400BAE020060FD50021002306910591049103930291019111
:2030F000009101223B200FF0D1FA84F08000A8E0E0044BD5F11D06F10D000FF0AFFA38680D
:20311000017A012918BF042931D1C17A02291EBF0329817E01292AD1817E00F114023046E5
:203130000FF0A4FAFF2811D04543354405F10D000FF0A8FA50B9E91D05F10D000FF08EFA9C
:2031500038680622E91D14300EF0C8FB3868C07A022818BF03280AD106F10D000FF092FA1C
:2031700028B938680622F11D0C300EF0B7FB3A4842683A4800784FF480510CF041FB10B169
:203190008E200AF089F884F480505AE0A00505D50EF055FE324901200860FEE7600504D57D
:2031B00007F097FB84F480604BE0600405D581200AF072F884F4804043E0A10440D5294D25
:2031D000286810B100200EF059FA274E4FF0FF3028600FF03FFA3168244D51F8202F68462A
:2031F00090472349234B486A8A6A009001920293C86A0268086A0392ADF810000A6B11785A
:20321000002904BF5068002805D19068002804BFD068002806D02970506868609168A960C8
:20323000D068E86029463568134A2E6813486B46B0471349086004F0B5FC84F4005000E0EB
:20325000002009B0BDE8F08F204F0020AC450020104F0020684E0020784E00206E4F0020A9
:20327000FC002043044F0020F04E00206845002058200020B11C01002C4D0020B82B00203F
:20329000EC4E00202DE9F04F09AFADF13C0D08900A92388809911E46ADF81800101C08BF2E
:2032B000002000F07581017800274FF0010B401C4FF0FF39B846DA460A9061E1252940F0C2
:2032D00056810178401C0A902D2918BFADF8068004D10178ADF806B0401C0A9030291CBF6D
:2032F0004246434604D10178401C5A465B460A902A29CDF800804D4617D1049330680A9B41
:20331000CDF80890C01C20F00300001D306050F8044C1978002C009403F101000A9018D53F
:20333000ADF806A06442009413E044460AE0600000EBC4004018A0F130040A9801780094B6
:20335000401C0A90302901DB3A29F0DBCDF8089004932E2929D10178401C2A290A9011D11B
:203370003168CDF80880C91C21F00301091D316051F8045C002D48BF454601782B46401CF8
:203390000A9011E0454643460AE0680000EBC5004018A0F130050A9801782B46401C0A90DC
:2033B000302901DB3A29F0DB02930AB1224604926C2904D04C2918BFADF8048004D1017820
:2033D000ADF804A0401C0A900BA8CDF80C800FAB07906429059300F0828069297FD0BDF89C
:2033F00018C075296DD0782969D06F2965D070294ED063293ED0732922D00A98401E0A90EA
:20341000099801281AD966490C68B5F1FF3F03D0A84288BF6D1C05D86FF00041814294BFB8
:203430000D1C099D029508A80AA932466B46A04709993F18091A0398099165E0454617E08B
:203450003068C01C20F00300001D306050F8040CBCF1010F014608B94FA0014607910EF03F
:203470006BFB0390B5F1FF3F4FD0A8424DD9039528464AE03068C01C20F00300001D3060CC
:2034900010F8040C8DF82C005D46039558463CE0082035680490E81C20F00300001D306041
:2034B00050F8041C082210230FA80AF039FC401E079040210170079823E0082302E01023A8
:2034D00000E00A233068C01C20F00300001D306050F8041CAA42BCBF2A1C04920DE030686B
:2034F000C01C20F00300001D306050F8041CAA42BCBF2A1C04926FF009030FA80AF010FC4D
:2035100007900599081A0390009C241ABDF8065000945DB906E008A8202109AA0DF029FC76
:203530007F1C009C641E0094F5D50398401EB0F1FF3F03900FD1BDF8060001281CD10098B0
:20355000401E009018D408A8202109AA0DF011FC00987F1CF4E70798017809AA08A80DF04D
:2035700008FC0798401C079003987F1CDEE708A809AA0DF0FEFB7F1C0A980178401C0A90A5
:2035900000297FF49BAE089808B14146017038460FB0BDE8F08FC046286E756C6C2900C0B2
:2035B000AC380100BB482DE9F84F0025BA4CB849056094F8E200002800F06581012800F0A0
:2035D0002F81B64E02283CD0032840F05C8151F8250CD4F8B8100029A0F5C060C4F8D4003D
:2035F000B8BF49420028B8BF4042814226DA4FF08057D7F8A4014568B4F8BC0030214FF4A2
:203610007F42082300903046A847D7F8A4014568B4F8C00004214FF4F8021223009030468F
:20363000A847D7F8A401B4F8D070456820214FF440620A2330460097A847012584F8D85065
:203650001CE151F8258C0EF0FAFB2F4600B901273946934F38680028FCD0B146012609F10D
:203670000409D9F82CA03E6009B10EF0EEFBCAF30720C4F8BC000EF0E2FBAA4600B9B24679
:203690003B68002BFCD0D9F800B0BAF1000F3E6001D00EF0DAFBCBF38440C4F8C0000EF007
:2036B000CEFBAA4600B9B2463B68002BFCD0D9F81C90BAF1000F3E6001D00EF0C6FBC9F3D5
:2036D0008120C4F8D000B8F5C061C4F8B81000F09C8094F8D80068B9C4F8D410D4F8C0009E
:2036F000C4F8C800D4F8BC70C4F8C470D4F8D030C4F8CC30D4F8D400D4F8BC30002854BF37
:2037100002226FF0010204F1C8010F6800EB40008018421000EB927207EBA2000860D4F812
:20373000C810C4F8C43000291CDD1E293CDDD4F8CC0030B93429B4BF15391E21C4F8C810FD
:2037500025E02A29BABFD4F8C8000B381E20C4F8C800D4F8C4003F28B4BF401C3F20C4F80E
:20377000C4001FE0D4F8CC00032812D011F10B0FC6BFD4F8C8000B30301CC4F8C800D4F8C5
:20379000C4000028C4BF401E051CC4F8C450032508E011F1150FC6BFD4F8C8001530301C7B
:2037B000C4F8C800C4F8CC504FF08057D7F8A401B4F8C43030214FF47F424568374800935F
:2037D0000823A847D7F8A40104214FF400321123456832480096A847B4F8C860D7F8A40189
:2037F00004214FF4F802122345682C480096A847D7F8A40120214FF440620A23B4F8CC60DD
:20381000456826480096A84701E084F8D85040F2FF50404502D8801C40452FD2082030E039
:2038300051F8251C1F4F4BF2F5204843060A3868C0F3814001280CD11B480068006880477F
:203850000CF002FA0EF007FB3111C010484306EBE03694F8E50030B91448006820F07F40CF
:203870003618760801E084F8E5501148310C0660012741600F4D8760287808B90B2000E066
:20389000052084F8E40003F035FFBDE8F88FC0462D400C402C500C40C417002000A00C40D2
:2038B00000800C40B43F0050EC010010102009403C600C40093701002DE9F84FB34D69681C
:2038D00084B0019121B905B0BDE8F04F0EF0BEBE0978DFF8BC82AF4EDFF8BC92DFF8BCA238
:2038F00001291CBF0229042946F2A81741F64C5B05D0402918BF802900F096803CE10EF0A7
:20391000DBFA0028FAD00198007805F09FFC0090446814B900200DF0B1FE9AF8010000289F
:203930005CD000F043F90EF0D5F802900168009801914F680AF03AFB022825D000990A780F
:20395000012ADBD196490A68137A19F80310317018B90EF077FE5844A0602069C17E01F044
:20397000EF01C1762069C17E41F08001C1762069C17E01F0F00141F00201C1762269B9689E
:2039900088484118D1614BE001980178802911D10820854930700A78012A03D09AF801004B
:2039B000022801DB38690CE0D8F828003A690178D1720DE07C49072030700A783869012A46
:2039D00002D10121C17203E0D8F828104A78C2720298817901988AF80210C8E000980028A5
:2039F0008CD00199009A0078914205D101281CBF00200DF043FE15E0012840F0BD80684869
:203A100001680A7A19F8020030700EF01BFE3918A0680EF013FE18B90EF014FE5844A060FA
:203A30000120A8700098A2E09AF8010000287AD000F0BCF80EF04EF8044620680290476823
:203A50009AF802000EF046F803900EF03BFA10F0070F3DD0A87805F0F9FB019041680198C1
:203A7000009102990AF0A2FA022831D001990A78012A2AD14A490A68137A19F803103170B0
:203A900028B90EF0DFFD83440098C0F808B000980069C17E01F0EF01C17600980069C17EF4
:203AB00041F08001C17600980069C17E01F0F00141F00201C176009AB9683A484118106971
:203AD000C16101210198A97051E000200DF0D6FD0398A04225D0029833490278802A12D130
:203AF000082030700978012903D09AF80100022803DB38690121C17210E0D8F828003A6954
:203B10000178D1720AE0072030700978386901290EBF0122D8F828104A78C272A0798AF853
:203B30000200029823E00EF0CDF910F0070F29D0A87805F08BFB04462078D4F8048001280D
:203B500020D117490868027A19F8021031700EF079FD3918D8F808000EF070FD20B90EF075
:203B700071FD5844C8F808000120A870204605B0BDE8F04F07F0C2BB05B0BDE8F04F0020FE
:203B90000DF07CBD05B0BDE8F08F00BFD02C0020C83801006F4F0020289A0110684E0020A3
:203BB000104F0020F0D8FFFF734F00202DE9FE4FB24C617811B900200DF060FD0EF042FD13
:203BD0004FF00008074607F6C417C246AC4DDFF8B49228E050460DF07DFF06467079F0B15E
:203BF0002968B07901F80800394608F101005FFA80F830460EF01EFD30680178402902BFE6
:203C100006F182000178012902BF41887289914205D1B169C088411830460CF07DF90AF1AC
:203C300001005FFA80FA99F800008245D2DB6178884505D000200DF021FD82200EF0F6FC53
:203C50006078012840F0F180002701E07F1CFFB299F80000874280F2E28038460DF03AFF7C
:203C7000064670790028F1D02968B0790A7890421CBF00200DF002FDB079FDE0286810F873
:203C900009000DF027FF00684268DAF808109068814204BF3E4609F1010900F0D480D6E0EC
:203CB000286890F800B001224FF4C0710FE0636803F5AD76835C01FB03F901FB0BFE36F8B6
:203CD00009C036F80E60B44538BF9B46521CFBB29A42ECDB4FF6FF700EF0A4FC06465846A4
:203CF0000DF0F8FE68490068D0F804A00868D94630F8192060684FF4C07300F10E0103FB10
:203D100009F3C85AB2EBD00F52D2720840F6C4104243009200275D4A0190029217E05846B2
:203D30000DF0D8FE01680A78802A03D1DAF81030009A5A610978402908D1029980790A6807
:203D500002EB4011009800F5A060C8617F1C47452EDA2868C05D8345F8D001464FF4C07336
:203D7000594363685A1803F5AD73D289595A53088B4202D2521A9045E8DA0DF0ABFE016826
:203D90004A68019B9168DAF808207008A1F6C41103FB00200EF052FC0028C0D03A480068E2
:203DB00030F81910491C20F81910286810F807B0296808780DF08EFE0026006847684FF493
:203DD000C079464551DA2868805D0DF083FE0068296842688B5D606809FB03F3034403F171
:203DF0008201087830B15889B1F802C0401C80B2604508DA887B01280ED15889098A401C93
:203E100080B2884208DB6EB3B968906801F5C241A8310EF013FC28B3761CF6B2D1E70020AD
:203E30000DF02CFC82200EF001FC617828680EF0F5FB286800780DF04DFE00260068D0F8B3
:203E500004A04FF00109771CC145FFF617AFF6B2002E1CBFF8B200287FF422AF286890F832
:203E700000B037E7296811F806B007490A6800205B4622F813005846BDE8FE8F684E0020BE
:203E9000004F00207B4F0020FC2C0020844E00202DE9F84FDFF8B8A20F460446F80B80F0DF
:203EB0000B81A64EDFF88882B80F80F0BC80B80880F0B0803809C0F0318108200DF0E4FF13
:203ED000002840F0A28080200DF0DEFF002840F09C80684608F0ACF8012803D10098002863
:203EF00000F0938091480078002840F08E8000250124E8B20DF0E4FD48B1837A3BB184725E
:203F100090F9090004FA00F0C0B20CF077F86D1C032DEED345464FF0030905F1AC0085F8C5
:203F300010900EF078F88348002301680360824950F8082C98461A4640F8088C05F134002E
:203F50000EF075F83068006B8047A968401A010BA869C1F1FF3282422CBF08444FF0FF3048
:203F7000A861287F20B1E868A969B1EBC02F1ED90DF064F9414600B12146081C14D0704813
:203F900040F60901018041464180427B64F303024273027B61F30302027341600DF060FEF3
:203FB000418811F4406FFBD02C774146A9616548016821F0020141F400710160624941F860
:203FD000049C41F230028A600C6050268E600C604FF4CA628A600C6041F80C4C4446046062
:203FF00002200CF0DFF9112007F02AF9287818B9686838300EF027F8687F18B16C770520F2
:204010000CF0D0F9514868612C740AF099FA27F0080783E005F0E8FE45467435286808B953
:2040300027F002077AE00DF0FCFFB3468146DBF85400016804208847D8B1207CC8B1454692
:2040500008352868A8B10646DBF80000E568006B8047801BE060000BE060A84202D240194F
:204070004008E06040F6C41181422CBFB0F5FA7FE16048460EF042FB0BF0A4FF90B1A569DA
:2040900020466FF4807100224FF00073A847464606F16C052868002808BF47F0020701D00F
:2040B0000AF04EFA2046646900214FF080630A46A04727F0005731E00DF0B3FF51460E68C6
:2040D00046B306F1280106C90A234FF0E0450B40154008BF002B1DD106F1280191E830000E
:2040F00006F1280393E8060006F12803AA43A14383E806000EF002FBB16869B1002D08BF87
:20411000002C09D030692246B6F93C10B4682B46A04701E00EF0F2FA27F4804727B15046FF
:20413000394650300DF097FFBDE8F88FB925002020240020141004403DE800008C01001025
:204150007C2C0020000004600C41044011B00000A02400202DE9F04FDFF8A0B2804609AFF1
:20417000FF200E461C460025ADF1240D97F8049007903F8830780592022805D17068008846
:2041900042F60211814273D030460AF0B9FE5EA3069018B3401E0ED028460090019040F238
:2041B000262102900322039050A304904BA007F065FC0A208FE065A00090CDF8048040F2EB
:2041D000212102940122039744A0CDF8109007F055FC5946142001F1040911E05DA0009059
:2041F000CDF8048040F213210294012203973BA0CDF8109007F042FC5946282001F1020954
:20421000B84214DD07EB040A50450ADBF06805992246C01907F0A8FFA9F800A006980790DE
:2042300013E0284640F231214CA30D2504E028464FF40B7152A307250090019002900390F0
:204250000322049025A007F019FC0798FF280DD0DBF8080050B1066846B1E419A0B2009001
:20427000069A059B41F230114046B047284632E0B9F1FE0F0CBF0FF22C190FF244193046E1
:204290000AF03EFE00904FF4FC71CDF804800122CDF808904DA3039510A0049507F0EEFB1E
:2042B0000097059A4046234631460AF089F8594608310F68051C0DD167B1786850B130461A
:2042D0000AF01EFE00947C68059B024641F230114046A047E8B209B0BDE8F08F6461746166
:2042F0005F736572766963652E6300C041747472696275746520776173206E6F7420666F88
:20431000756E642E00C046C05772697465417474724342203A20257320636F6E6E48616E30
:20433000646C6528256429206C656E28256429206F666673657428256429206D6574686F67
:2043500064283078253032782900C04653747265616D00C0537472696E6700C0496E7661FA
:204370006C69642076616C7565206C656E677468207761732072656365697665642E00C055
:20439000416E20696E76616C6964206F666673657420776173207265717565737465642E25
:2043B00000C046C02D20726573746F72696E6720626F6E64656420737461746500C046C06A
:2043D0002D204F5441207772697465005772697465417474724342202843434344293A204E
:2043F000706172616D3A20256420636F6E6E48616E646C653A20256420257300841A002046
:204410002DE9FE4FDFF84492914E99F80000914A914D92490D2873D8DFE810F016010E000C
:204430000E000E000E000E010E0191000E01CD00CD00EB00EB00F200326041F2044A88493E
:20445000DFF820824A88884C52451FBF4B8B53454B8E53454FF4A0572DD1DFF810B2DBF835
:204470000000006800F108010079032816D1D1F80E0000281CBF088B00280FD091F8220020
:2044900010F0E00F0AD101F11E000EF0C3F8012804D1A5F800A07648306084E099F80010EB
:2044B00002290CBF44462F8034600020DBF800100A68107177E0002A2A8039D0521E3CD083
:2044D000521E35D040F2FE33D21A1AD0121F012A1DD94FF47F73D21A1BD04FF44063D21AEE
:2044F0000FD0921E012A0CD9121F0AD0521E012A0DD940F2F933D21A012A19D9121F08D011
:204510009AE0022814BF2F80444634604BE0594CFBE759480268137A012B05D141F2024086
:20453000488048834886F0E74F804F834F86ECE700200DF0A3F8832082E08F2080E04F4887
:204550008178FF290CD0326018204D4A414310684C4A831C40F204445B5A2B801B1B012B80
:2045700072D94FF47F741B1B0FD04FF440641B1B032B84BF5B1F012B0BD99B1E012B63D95C
:2045900040F2FD341B1B08D103E0801C41F201434352326006F048F805E000200DF06EF8DE
:2045B00085200EF043F803B0BDE8F04F36480078012106F0E5BD40F2044248882880904204
:2045D0001CBF41F2084290423ED041F60402904211D12E4C2E4B0020CDE9004002222D4CFC
:2045F0002D482468006854F8086FB0472B4908802AE04888288000200DF040F885201FE011
:204610004888288002280DD940F20442801A1BD040F6FC72801A05D0083815D04FF47F7299
:20463000801AE8D1887B801CC2B2B52AA8BF662088730020488007E000200DF01FF8842096
:20465000BDE8FE4F0DF0F2BFBDE8F78F6F4F0020204F0020FB1F0100504F0020CC4C002000
:20467000204A0020B1540110615A0110F44B002059550110755B0110104F0020684E00206A
:20469000804E0020313901106E4F00200200008051040100F04E0020EC4E0020424F002083
:2046B0002DE9FC41A0F2013714468846022F40F232819B4E9C493F1F0F2F04D9143F4CD0D9
:2046D000BF1E1CD011E0DFE817F0CF00C9000D01FA00C100B9002601AF00A700100010008B
:2046F0009D008F007F00740066002D2880F21381B8F1020F40F00F818849238807E1B8F143
:20471000010F40F00881F078012800F00481324620781179107189B9002800F0FC80507801
:20473000012800F0B580042800F0B280062800F0AF80052800F0AC80BDE8FC812078002855
:2047500040F0E9805078032800F0AF80072800F0AC80052840F0DF80A7E0B8F1010F40F027
:20477000DA802078012840F0D68006F1EC000DF087FA002840F0CF803446002004F13A01B6
:2047900008F006FB002840F0C68004F1C8000DF066FCBDE8FC81B8F1020F40F0BC80208866
:2047B0000A28C0F2B880B0F5486F00F3B4808E1C17E0B8F1020F40F0AE802088B0F5FA7FCB
:2047D00080F2A9800E460CE0B8F1020F40F0A38020880628C0F29F80B0F5486F00F39B80D0
:2047F0003E363080BDE8FC81B8F1020F40F0938020880628C0F28F80B0F5486F00F38B8075
:204810003C36EEE7B8F1010F40F085802078062880F28180454E0EE0B8F1010F7BD12078FC
:20483000042878DA0A3606E0B8F1010F73D12078082870DA09363070BDE8FC81B8F1010FFB
:2048500069D12078042866DA0836F4E7B8F1010F61D1207804285EDCF61DECE7B8F1020F68
:2048700059D120880E36BCE7B8F1010F53D13079012850D032462078D178D07069B90028BD
:2048900049D05078012803D0042818BF052842D101200DF025FABDE8FC81207800283AD1BE
:2048B0005078022818BF052835D110780CF0D6F81C490246102003F0ADF8BDE8FC8106F10C
:2048D000830500211F22284608F0E2FD21464246284607F049FC44463078B4710CF0BEF8F7
:2048F000002311E006F1640500211F22284608F0CFFD21464246284607F036FC44463078E8
:2049100074710CF0ABF801230094094901950246102003F07FF8BDE8FC81C046B90401009B
:2049300028100020994501106810002062100020094501102DE9F04F8246DAF80070DAF866
:2049500004600C465FEA0208ADF11C0D14BF00214FF0FF31DFF8409248460DF01EF90028A1
:2049700018BF0B2040F0158100258F488C4905708A48FC6052460DF05AFB317B27200DF011
:2049900058FBB8F1010F07D0657002200BF0ECFE06200BF0E9FE01E00120607020780128AD
:2049B00040F2AA80801E012868D9801E012833D9801E012800F2DE800DF033FB83464FF066
:2049D000805000F5EE77D0F8DC01A378466A009321782846062908BF012001900120029038
:2049F000A068228AE1686368B047814658460DF085FEB9F1000F40F0BF80B8F1000F02D051
:204A10000CF03CFF02E050460BF068FD002800F0A3803868806A2AE00DF003FB83464FF0A5
:204A3000805000F5EE77D0F8DC01012306680093A168A27860682478AC46042C08BF9C4620
:204A50006346B047814658460DF058FEB9F1000F40F09280B8F1000F02D00CF00FFF02E07D
:204A700050460BF03BFD002876D03868406880474C49C1F8B0510D6081467DE00DF0D1FA38
:204A900083464FF0805000F5EE77D0F8DC01E38A86690093E0680190208B0290A07803907F
:204AB000207D04900121059122782846022A08BF081CE1786268A368B047814658460DF057
:204AD0001DFEB9F1000F57D1B8F1000F02D00CF0D5FE02E050460BF001FD00283CD038682C
:204AF000006A80475FEA000946D1E078A168E28A236908F091F9BFE70DF093FA83464FF0F9
:204B1000805000F5EE76D0F8DC01E38AC7680093E0680190208B0290A0780390207D2946BB
:204B3000049001200590257805B9014608466268A368E178B847814658460DF0DFFDB9F116
:204B5000000F19D1B8F1000F02D00CF097FE02E050460BF0C3FC08B914201AE030684069CF
:204B700080475FEA000907D1306802692169E078904781E74FF0FF39B8F1010F05D00220E9
:204B90000BF010FC06200BF00DFC03480DF05BFA484607B0BDE8F08F141F00204C1F0020F0
:204BB000AD0D010050450240242D0020F0B507460020ADF11C0D0E46044664A500900322AD
:204BD000019464A30294DD2103942846049406F055FF64A3B81E09D0801E00F09F80401EED
:204BF0007ED0401E5ED0401E3CD01BE0012E0CD00094019428460294F021039403220494C9
:204C100006F03CFFF1215AA394E00094019428460294EB2103940322049406F02FFFEC2112
:204C300058A387E000940194284602944FF4847103940322049406F021FF009420460190A8
:204C500040F2091102900322039054A30490284606F014FF01208DF817009DF8170000281B
:204C7000FBD171E000940194284602944FF4817103940322049406F001FF009420460190D0
:204C900040F203110290032203904AA30490284606F0F4FE01208DF816009DF8160000280E
:204CB000FBD151E00094019428460294FC2103940322049406F0E2FE009420460190FD21CA
:204CD00002900322039040A30490284606F0D6FE01208DF815009DF815000028FBD133E05F
:204CF0000094019428460294F62103940322049406F0C4FE009420460190F72102900322FA
:204D1000039036A30490284606F0B8FE01208DF814009DF814000028FBD115E000940194F4
:204D300028460294E32103940322049406F0A6FEE4212EA3009420460190029003900322C2
:204D50000490284606F09AFE07B0F0BD6D61696E2E6300C03E3E3E535441434B2041535322
:204D7000455254002A2A2A4552524F522A2A2A003E3E20494E5445524E414C204552524F61
:204D9000522100C03E3E20494E5445524E414C204657204552524F522100C0463E3E204469
:204DB000454641554C54205350494E4C4F434B2100C046C03E3E2057524F4E472041504995
:204DD0002043414C4C2100C03E3E204943414C4C2054494D454F55542100C0463E3E204952
:204DF00043414C4C2041424F525421003E3E204F5554204F46204D454D4F525921007047B4
:204E10002DE9F04F09AF8846ADF12C0D1C460025DFF834A297F804900690FF203F88099064
:204E300098F800000792022806D1D8F80400008842F6021181426CD0404608F063FB08901E
:204E5000401E1BD0401E14D0401E0ED028460090019040F2B1210290032203904BA304901C
:204E700046A006F00BFE0A2085E0504600F10E0A02E0504600F10C0A012603E050460226C8
:204E900000F10A0ABE42059022DD07EB040B5E4518DB5E4505DDB9F1180F10D0B9F1120FD1
:204EB0000DD0D8F80C0007992246C01907F05CF95E451BDCAAF800B00898099016E040F2AF
:204ED000C62101E040F2BD21284637A30D2504E028464FF42E713DA307250090019002907D
:204EF00003900322049025A006F0C8FD0998FF280DD00598006950B1066846B1E419A0B276
:204F10000090089A079B06984FF40071B047284631E0B9F1FE0F0CBF35A63CA6404608F028
:204F3000F1FA0090DDF8189040F28A21CDF804900122029638A3039510A0049506F09EFD2B
:204F50000097079A23464146484609F039FA06465046103007686EB967B1786850B1404628
:204F700008F0D0FA00947C68079B02464FF400714846A047F0B20BB0BDE8F08F616C735FB4
:204F9000736572766963652E6300C04641747472696275746520776173206E6F7420666FF4
:204FB000756E642E00C046C0496E76616C69642076616C7565206C656E6774682077617395
:204FD0002072656365697665642E00C0416E20696E76616C6964206F666673657420776117
:204FF00073207265717565737465642E00C046C02D20726573746F72696E6720626F6E645B
:20501000656420737461746500C046C02D204F544120777269746500577269746541747400
:20503000724342202843434344293A20706172616D3A20256420636F6E6E48616E646C6583
:205050003A20256420257300D81800202DE9F04385B011F8017B0446082F04F1FD0004F12A
:20507000FC0804F1760504F5A076844A844BDFF8149213D0092F21D00F2F2FD0112F01BF3A
:20509000287801286878102840F0D5800A78327648787076012184F83D11EBE00025521C80
:2050B0004E5D5F5D3E434E55575D3E4046556D1C082DF5DB204608F043FF74E00024571C6F
:2050D0000D5D1E5D35430D553A5D15400555641C082CF5DB022088F80000CBE098F8010059
:2050F000820704D410F0110F57D01A2266E008784A7800EB02203080CA78887800EB022028
:2051100070804A79087900EB0220B080CA79887900EB0220F080087A30724A7A887A02EB76
:2051300000227281C87A0A7B00EB0220B0818A7B487B00EB0220F0810A7CC87B00EB022029
:2051500030828A7C487C00EB022070820A7DC87C00EB0220B082487D897D00EB0120F08271
:20517000494801788A0658BF1A2212D504F5A670049071890391307A029021890191F0882A
:205190000090B38872883188204608F097FBE0B11E2298F80100410710D40F2088F815003F
:2051B00020460DF033FA002864D199F8000005B0BDE8F0434FF4804105F0E2BF204605B01F
:2051D000BDE8F0430F210DF01DBA7088A882B188E9820221F0882883297400206882A18E01
:2051F000A88AC91DE981618EB0EB510F02BFE88AA18E884202BF288BE18EB0EB111F18D071
:205210002878012804BF68780F2805D0687918B10F21A972FE2127E0FC2120460DF0EEF984
:20523000F0880090B38872883188A0790DF0E2F920E0102118E0491E20460DF0D7F9032F82
:2052500018D1A878042818BF0D2813D16E78142E18BF0E2E0ED12F7820460DF0C3F9012F09
:2052700006BFAE72FD213146204605B0BDE8F0430DF0C4B905B0BDE8F08300BFEC4D002052
:20529000EC2C00206E4F0020144E002010B50B7884074CBF43F0020303F0FD0304064CBF49
:2052B00043F0800303F07F0304074CBF43F0080303F0F70384064CBF43F0200303F0DF03B2
:2052D00010F0AA0F0B7003D0107840F00C0003E018B9107800F0F300107010BD2DE9F84336
:2052F0000D4600272878022814461E4667D1696808784978DDF8208000EB012080B25FEA56
:2053100008021CBFB0F5285F0B205BD14FF42851401A08D0401E21D0401E2FD0401E25D028
:20533000401E31D04BE0DDF82490E8680CF0A1FE80B2A0EB08024A45BCBFA0EB08001FFAE2
:2053500080F909EB0800162806DAA6F800904A46E86800EB08010DE00D2732E0E86800889D
:20537000022131802070000A60702AE0062030800622E96820460CF0B1FA22E001203080A6
:20539000E9680A7822701CE0E868B0B1082131800288227003881B0A63704188A1704288CE
:2053B000120AE270818821718288120A6271C188A171C088000AE07103E0308001E03780B2
:2053D00001273846BDE8F2832DE9F0470F46814638780024022890461D466DD17868089E99
:2053F00001784078DFF8D8A001EB002189B24FF42852891A06D0491E29D0491E4ED0491E53
:2054100039D059E0F8680CF034FE80B2B04204D3A919162903DB0D244FE007244DE0FB68B7
:205430002A46414698190CF059FAAD19F868ADB2C5F11602002140190CF019FEDAF80000B3
:2054500000281CBF0268002A37D0002123E08EBB022DE0D198F8000098F80110FA6800EBD3
:2054700001201080DAF8000000281CBF0268002A23D001210FE0EEB9062DCCD1F8680622FF
:2054900041460CF02BFADAF8000000281CBF0268002A12D00321484690470EE056B9012D55
:2054B000B9D198F80000002813BF0128F9680870802402E00B2400E001242046BDE8F0878A
:2054D0000C2D00207CB5894D144602460026A2F58062182A1AD8DFE812F0FE00F800F10037
:2054F000E900E200DC00D500D0001900C500BE00B700AE00A3001900190080006F00680023
:2055100054004C00420039002C0024002D2880F28580022940F0828021880AF0C5FF064634
:20553000E1E0012940F0DE80002C00F0DB801135A6E0102940F0D680002C00F0D380284603
:205550005030102221460CF0C9F9CCE0012940F0C980002C00F0C68029468D1D90E02629DB
:2055700040F0C080002C00F0BD8005F160002622E8E7012940F0B680002C00F0B3806D1D7C
:205590007EE0602900D13CB9012940F0AB80002C00F0A8800D3573E005F18600214660228B
:2055B0000CF09CF9012068739DE0012940F09A8020780DF013F896E0012940F09380207842
:2055D000022800F38F800C3528702078022814BF301C01200CF0FEFF85E0072940F08280F4
:2055F000611C684606220CF073F820786946324606F0A0F904460A2C10DA0CF0E7FF38B956
:20561000204603F049FF0BF091FC09F0FBFA6AE02A46012002F12C05285564E0022662E039
:2056300001295FD1A87B21780028A9735BD12078012858D1E9E7012954D12478072C51DBD0
:20565000102C4FDC0B3537E001294BD124780A2C48DA093530E0012944D12478022C41DAD0
:20567000083529E000293DD10CF0B0FF10B90CF0C9F9C8E701240F351EE0012932D10A35E9
:20569000247819E001292DD12478022C2ADAED1D12E0102926D12B4603F1400051E701293C
:2056B00020D12478022C1DDA2D1D05E0012919D12478042C16DCED1C2C7014E0012911D182
:2056D0002478022C0EDAAD1CF6E702290AD120881435288007E0012904D12478022CD8BF7C
:2056F0006D1CE9DD182630467CBDC0463C1500202DE9FE4F05467B48002400680094C0098D
:2057100005D37948007810B920200AF001FF012D40F0E280DFF80092D9F8DC00012840F036
:20573000D8800220C9F8DC000CF048F801200AF0EFFE5FEA000805D00120C9F8DC000CF01E
:2057500049F8CBE00CF083FCA34602906748684DC0F800B0A86A016801208847012804D122
:20577000584608F059FC012000906248624FC0F800B0386811200CF081FB00B1012410206B
:205790000CF07CFB08B144F002040F200CF076FB08B144F004040B200CF070FB20B128680F
:2057B000564E016B308888470A200CF067FB20B12868534E016B308888475248012606609E
:2057D0002868816944F0200088474F4806600CF04FFB00F001010191400814D2286A8168AC
:2057F0004A4888478246BAF1040FF7D0BAF1010F04D1286A4268454803219047444908689A
:2058100020F003000860584600F088F82B683868986B8047019801280CD0BAF1010F04D1C4
:20583000286A42683948314690473949086840F0030008602F480660286841692046884774
:205850000B200CF01BFB20B128682C4BC16A188888470A200CF012FB20B12868284BC16A57
:2058700018888847274806600322C9F8DC20264BC3F800B02868416B204688470128F9D1B2
:20589000386804200AF044FE0446184806603868144800688009FBD30098012802D1304623
:2058B00008F0BAFB0CF0D1FA08200AF031FE07460298C9F8DC600CF085FE1648008808F0D2
:2058D000A7F80BF087FF57EA040018BF4FF0FF3804E06FF0040801E06FF001084046BDE843
:2058F000FE8FC04614100940AC1800200C400940B8010010000222432C20094032320100F5
:205910002E3201002820086080010443004003402422084004370100C41700202DE9F84FF9
:20593000DFF804B20746ABF13500DFF8F0810068800880F0E28075480068006880477E4987
:205950000831D1F8009000254FEA29715FEA995201F101010AD2C0F13E0210F10A0F4FEA65
:20597000E202D8BF08229142B8BF111C684BD3F87C21C2F30462162AA8BF203A1B68C3F38B
:205990000443162BA8BF203B9A465218162A05DA12F10A0FB8BF6FF0090200E015225D4B88
:2059B0005D4E02F01F0141F4F8511980316811F0030F18BF0125C90828BF45F002050FB1A6
:2059D00045F00405434693F90710411A052904DA9979A94208BF99886FD0DFF844E10F288F
:2059F000A0F10F0829DB08EB0011A1F1F0084FEA28210091072984BF07210091062988BFA8
:205A100006215EF821600424774604EB81043C594FEA950CA41BEE0804F0FF0124BFC4F36D
:205A3000072631446F08AE0824BFC4F3074631446E0828BF01EB146104E000214FEA950C8E
:205A50006F080091009C5EF824E05FEA5C060EF0FF0424BFCEF3072634447E0824BFCEF319
:205A7000074634446E0828BF04EB1E64009E89B2A8EB06267143803104EB1124AAEB0201CA
:205A90000029D8BF0121342209F0FF074A4391B24FF6FF727943B1FBF4F18A4238BF111CFC
:205AB000802889B2998005DA10F1800FB8BF6FF07F0000E07F20D8719D711A4800681F292E
:205AD00018604FF0000008D340F2FF128A4206D24908401C8A42FBD301E01F219980134F5A
:205AF0000F39090940EAC10047EA0001CBF8FB1F0026CBF8FF6FBDE8F88F0D490D4F434684
:205B100008200F609B1D1870BDE8F88FEC0100103C1100506E62084024220840F42C0020F2
:205B30009C130050082009403500094000E7A48030100940FDFDA400AC3F00502DE9F04FA5
:205B5000804C0546E06893460F462E1CADF1140D16D0761E06D00095002040F2311139A34A
:205B700005465BE00646002047A240F22D1104F1040804F1100914254FF0010A84460AE084
:205B9000002043A24FF4917104F1020804F1240928258446E2460092019703460290012223
:205BB000CDF80CC023A0049330A305F067FFBD422FDB484659463A4606F0D6FABAF1000F86
:205BD000A8F8007032D0B078002808BF32A103D001280CBF37A13DA13088002700903D464A
:205BF000012201913EA3029740F24111039511A0049505F043FF06200090534F207804F1E4
:205C10004C0349462A4601903046029705F092FD0CE0009700204FF4A5713CA301900295FF
:205C300003900322049003A005F028FF05B0BDE8F08FC046646174615F7365727669636580
:205C50002E6300C0536574506172616D657465723A20506172616D6574657220232564202F
:205C70006E6F742076616C69642E00C0536574506172616D65746572203A202573206C65D5
:205C90006E3A20256400C04653747265616D00C0537472696E6700C01B5B33336D4E6F74C0
:205CB000692F696E642064697361626C65641B5B306D00C04E6F74696669636174696F6EEF
:205CD00020656E61626C656400C046C0496E6469636174696F6E20656E61626C656400C056
:205CF000547279696E6720746F2073656E64206E6F74692F696E643A20636F6E6E48616EE7
:205D1000646C652025782C20257300C04C656E677468206F75747369646520626F756E6426
:205D3000733A204C656E3A202564204D696E4C656E3A202564204D61784C656E3A202564F6
:205D50002E00C046841A0020158300002DE9F0410446804DA178A869ADF1180D891F00F0C6
:205D7000F280C91E00F0DD80491E5FD0491E48D0C91E3CD0481E40F0E980287A697AB8B970
:205D90006878002831D0A0880CF018FC071C00F0DD80A07A40080FD3787968B1E168890A18
:205DB0000AD2B91D01AA05F0C5FD0A2804D10321A0880CF0FFFBC9E0287B022802D1A07A13
:205DD0000009F4D3A088797904F1080201F05AFDA869002800F0BA804368002B00F0B68023
:205DF00000210A46A0889847B0E00521E0E7002800F0AC804368002B00F0A880627802216F
:205E1000F0E70BF05DFF002800F0A080A86950B1076847B1206900906189227B637BE01C19
:205E30003C46A04792E060890121C2E767784FF00008002F66D1A179490863D3EF69002F0F
:205E500060D101A841460E220CF011F9A0880CF0B5FB071C7AD0606940B97879B91D0622A9
:205E70008DF80A0001A80BF039FD19E06669307C062206F111018DF80A0001A80BF02EFDA6
:205E900007F10C00B91D06220BF028FDB81D062206F111010BF022FD307C40F002007871E9
:205EB000A079C00839BF387900F0FD00387940F002003871A079000939BF387900F0DF0035
:205ED000387940F020003871A1799DF81120C1F3800010438DF81100080905D39DF811007C
:205EF00040F008008DF8110001A8214600F022FD28B92878022105F043F9404627E0A86932
:205F10004FF0150810B3436803B3A088627801219847B8F1000F19D0A869436803214246E5
:205F300060E7E078211D002205F004FD0A280DDA410001EB800004F10C0225300421C0B2A7
:205F500003F0D6FE02E0A08809F02AF8012006B0BDE8F0813C1500202DE9F04F044672488E
:205F70008E46016894461F46BEF1000FADF13C0D4DD0BCF1000F4AD09EF800200120904056
:205F9000014244D0BCF80000B0F5C15F32D1DCF81400DCF81860654BDCF81C50DFF890A1F2
:205FB0000B904FF003080DF128090C9618680D95C0F3036B59F8046FCEB10021351F0520FB
:205FD0000B4655F8042FB2F1FF3F10D0924506D0401E01F1040103F10103F2D107E0052B4B
:205FF00005DA705820F4702040EA0B407050B8F10108DFD1C4F804E0C4F808C00CF011F886
:206010004C4D8046287820B140460CF077FB002087E002F0F1FF4849086840F002000860A8
:2060300007A80BF025FE002605F1D00007AA4349099609F045FE424905F5827007AA09F05E
:206050003FFE07A80BF0DCFDFF20192107AB3D4A089005F1340009F0B9FD3B4A05F15000A2
:206070001A2107AB09F0B2FD3849324605F18800134608F01DFF3649324605F1AC001346A5
:2060900008F016FF334A05F12000042133460AF0ADFE0E2005F0EAF905F174000BF0DEFCC8
:2060B00005F16C000BF0DAFC2E740523EB60072085F898012E77AE616E772849AE60264AC3
:2060D00069612B781670581C287040460CF016FBB1461FB968460BF0D5FC6F463868206000
:2060F000388A6082012060747B6813B940F6C4130646E3601A48A06126746061F86800B1DD
:20611000A061B86800B160614946582204F1200007F0BEF904F1380049460AF023FD6C606E
:2061300020460FB0BDE8F08FD4210840541300500200F844202400200020094015180100D9
:2061500031AC00003DE80000CDE100002D120100E51501007DF200001E2D002011B00000A9
:2061700043B900002DE9F0477C4C2369E5680F4691460FF2D40A011CADF1180D11D0491EF2
:2061900007D000220746154640F2471133A328464DE043A040F24311A61D04F102081D46C5
:2061B00005E041A04FF49C71261D04F1010800900197002002900122039032A304905046E9
:2061D00005F05CFC022F2CDA5FB3404649463A4605F0CAFF3780A878002808BF34A103D058
:2061F00001280CBF39A13FA12888002700903E460122019140A3029740F2571103965046FC
:20621000049605F03BFC07200090554F207804F114034146324601902846029705F08AFA99
:206230000FE0012200204FF4B0713EA315460097019204460295032203905046049405F096
:206250001DFC06B0BDE8F087627574746F6E5F736572766963652E6300C046C05365745084
:206270006172616D657465723A20506172616D6574657220232564206E6F742076616C69B9
:20629000642E00C0536574506172616D65746572203A202573206C656E3A20256400C04675
:2062B000425554544F4E3100425554544F4E30001B5B33336D4E6F74692F696E642064697B
:2062D0007361626C65641B5B306D00C04E6F74696669636174696F6E20656E61626C65649E
:2062F00000C046C0496E6469636174696F6E20656E61626C656400C0547279696E6720740A
:206310006F2073656E64206E6F74692F696E643A20636F6E6E48616E646C652025782C2093
:20633000257300C04C656E677468206F75747369646520626F756E64733A204C656E3A20F8
:206350002564204D696E4C656E3A202564204D61784C656E3A2025642E00C046CC1B0020DB
:20637000B58100002DE9FE4F0E468246307AC10693461F464FF000090CD558460CF016F9D7
:20639000030000F0E8800A223146504698475FEA00094DD130780C9D0D9CDDF83880022859
:2063B0001AD170680178407801EB002189B24FF42052891A012910D9891E3AD0491E14D02A
:2063D000FD397AD0491E00F08180491E6DD0491E73D0491E00F09580ABE0002C2AD1F06811
:2063F000017829800278416887E0002C22D101202880F1680A783A7000217089401C80B2CC
:206410000CF0D0F8298860B10278921C51182980418979704289120ABA7041680278F81CB1
:206430006CE0091D298004220021781C0BF01FFE93E0002C66D1F0680688042129803E7006
:20645000320A7A700DF1020130460CF0ABF8040021D0D4F80C80BDF802204FF6FF766B4661
:2064700031460CF09BF840B9237862683C4802210CF090F808B9ADF8006098F800000228FD
:206490000BD1D8F804100222381D0BF027FA2888801C288001E0ADF80060BDF80000B870E0
:2064B000BDF80010090AF97057E0002C2AD1F068016850460BF094FB02E01CBBF0680088B3
:2064D000022129803870000A787046E0F0680BF0D0FD80B2A042B8BF4FF007093DDB844248
:2064F00008BF002205D008EB04028242B4BF4246021B2A8092B2F068011938460BF0EEF939
:206510002BE014B14FF00B0927E0F0680721298002783A7043787B704188B9704288120A76
:20653000FA7001793971C2887A71C088000AB87113E058460CF02AF85FEA00090BD00F988A
:206550000290CDF8048000942B463A4631465046C847814601E04FF00E094846BDE8FE8FF1
:20657000A43401002DE9F04F09AF3D7981461C468A460846ADF1240D3F88069208F088FD7D
:206590000026FF214BA3DFF8C8810790089108B3401E0ED030460090019040F2EB11029019
:2065B000032203903CA3049037A005F067FA0A2066E051A00090CDF804904FF4F3710294EC
:2065D0000122039730A0049505F058FA404600F1040B0FE04AA00090CDF804904FF4EC7156
:2065F00002940122039728A0049505F047FA404600F1020B05901FBB07EB0408B8F1020FF6
:2066100018DAB8F1000F03D1182D10D0122D0ED0DAF80C0006992246C01905F0A5FDB8F1AC
:20663000000F1BD0ABF800800798089016E040F2FF1101E04FF4FB71304633A30D2604E0CB
:20665000304640F2F11139A307260090019002900390032204900CA005F010FA0898FF2806
:206670000DD00598806850B1056845B1E419A0B20090079A069B41F210114846A8473046DC
:2066900009B0BDE8F08FC0466C65645F736572766963652E6300C04641747472696275749C
:2066B0006520776173206E6F7420666F756E642E00C046C05772697465417474724342200E
:2066D0003A20257320636F6E6E48616E646C6528256429206C656E28256429206F666673BD
:2066F000657428256429206D6574686F64283078253032782900C0464C45443100C046C06C
:206710004C45443000C046C0496E76616C69642076616C7565206C656E677468207761738D
:206730002072656365697665642E00C0416E20696E76616C6964206F66667365742077619F
:2067500073207265717565737465642E00C046C0B41E00202DE9F04F754F1E46ADF1340D82
:2067700001914FEA960902923D680090710809F1020221F0010105EB8200091D0390901879
:2067900005EB80000490501805EB80038018059305EB8000079026F0030000F1080802EBCC
