:200000000040002091F3000001C9011001C9011001C9011001C9011001C9011001C90110DA
:1C00200001C9011001C9011001C9011001C9011001C9011001C901103FC9011089
:20003C002DE9F04FADF1340D01F074F9B44DB54E4FF0000805F16000401C079001E0404617
:20005C002870A868B04A41464FF0FF3300F07CFD00280890F5D0404605900DF11A0105AA19
:20007C0006A810F03BF9B8A100280C9140F05484BDF81800012710287BD168789DF81A1044
:20009C00884276D1059C20884FF6FF71814270D02378913B59D01F3B6BD16078162827D0FF
:2000BC0020797E2818D07F280ED0009040464FF4B061BEA3019042460292039204923A4655
:2000DC000C980BF02BFB31E02089424640F27B510090C0A30192EFE7207A00904046019062
:2000FC0040F27651029003220390C1A30490E7E72079434642460090414601930C9802924E
:20011C000222039140F25E510493C8A30BF006FB6B6A8BB94FF6FD709C499D4A009043467C
:20013C00102007F0E5FA6B6AC2B22AB1217904F1080000F00DFD1CE043F0010338466B626A
:20015C000AF018FA47462C6113E060780E2810D140464446009043464246414601940C980A
:20017C000293CBA303923A46049140F241510BF0D5FA0598002800F0CF83002F00F0CC83B3
:20019C0011F085FDC8E3E86800F0E6FC83469BF808100FF23C390BF10904002900F027823E
:2001BC00491E00F0B380491E00F09780491E00F0AD83491E66D0491E44D0491E03D00A390F
:2001DC0000F08B83A5E3686A4008C0F0A2832F69002F00F09E83A87807F10804401CA8701E
:2001FC00C04900947A883B79102007F081FA5FFA80F9B9F1160F14D06F6AB9F1040F10D0F3
:20021C0037F001076F6208D14FF6FD705F49604A00900123102007F06BFA48460AF0AAF97A
:20023C0077E3286900790090A878474644464346019040F2C9510297022203940C98049382
:20025C00BBA393E2C77A00F10904002F0CBFC4A0C6A000904346474642464046019040F235
:20027C00D13102970C980393C2A3049201220BF055FA404600909A4922884346102007F0D2
:20029C0037FA46E300F10904407A0D2814BFC6A0C8A06778002F0CBFC9A1CEA14346474692
:2002BC000090012201914046029040F2524103970C980493CCA30BF031FA27780D3F09D0D2
:2002DC007F1E40F0268301200146641C224605F09FFE1EE301214046F7E7278841F2101021
:2002FC0022463F1A06D0103F40F0138320796188641DEBE710795188521D08F0ADFB08E305
:20031C00D80A0020801D00200F0000C020880FF2243A0FF2343E0FF2483CB0F5007000F02F
:20033C00C980B0F5726023D0103840F0F282B4F8050088B1401E04D0401E08BFCDF824A038
:20035C000CE0CDF824E009E070726F6A6563745F7A65726F2E6300C0CDF824C02079012811
:20037C0040F0D782099CD1A0D4A740F21B5187E0B4F8050070B1401E04D0401E08BFCDF854
:20039C0028A009E0CDF828E006E0C04689E800007B160100CDF828C02779002F6BD07F1E80
:2003BC0040F0B782BFA740F2C14167E052656365766965642047415454204D6573736167E0
:2003DC00652E204F70636F64653A2030782530327800C0464D54552053697A6520636861F0
:2003FC006E67653A20256420627974657300C046466C6F7720636F6E74726F6C2076696F50
:20041C006C617465642E204F70636F6465206F66206F6666656E64696E6720415454206DB3
:20043C0073673A2030782530327800C04F7574676F696E67205246204649464F2066756C56
:20045C006C2E2052652D7363686564756C65207472616E736D697373696F6E206F66206DC9
:20047C0073672077697468206F70636F64652030782530327800CBA74FF49761CBA00A9C8B
:20049C0000900197029443460393CCA3CEE0C04648434920436F6D6D616E6420436F6D70DE
:2004BC006C657465204576656E7420726563656976656400B4F80500B0B1401E04D0401E4B
:2004DC0008BFCDF82CA011E0CDF82CE00EE0C046616C735F68616E646C65722E6300C046DE
:2004FC002D030100DDFE0010CDF82CC0404600904746019743460293424603924146049181
:20051C000B9B48460122F0210BF008F92779002F40F0FF814FF4A471C8A340464746009076
:20053C0048460197444602944246039204971CE15265747279696E67206D6573736167654B
:20055C002077697468206F70636F6465203078253032782E20417474656D7074202564006C
:20057C00446973706C6179696E6700C053656E64696E6700426F6E644D677220526571755D
:20059C0065737465642070617373636F64652E205765206172652025732070617373636FF5
:2005BC006465202530366400427574746F6E203100C046C0427574746F6E203000C046C022
:2005DC001B5B33336D72656C65617365641B5B306D00C0461B5B33326D707265737365641A
:2005FC001B5B306D00C046C02573202573002088B0F5807000F0F080B0F5807000F0B9805B
:20061C00B0F571605ED0203840F08381277987B37F1E40F07E8160790090A0790190E0797C
:20063C009FA34746029040F2EF410397424604929AE0C046496E6469636174696F6E73200E
:20065C00656E61626C6564004E6F74696669636174696F6E7320656E61626C656400C04668
:20067C004E6F74692F496E642064697361626C656400A548414628220CF05AFDA248641DA6
:20069C00272221460BF0C0FB9F4C96A707A00090424601974FF49D61029494A30392474629
:2006BC00049761E0425554544F4E310044617461205365727669636500C046C05374726566
:2006DC00616D00C0A178BF4A601D0DF037FC2379671D0FF2E42A0FF2E429FBB15B1E40F00F
:2006FC001881B84AC3A0C6A30090414601930C98029243460391012240F2874104937BA3A5
:20071C000BF00CF8A869627907210FF0A3FA3F7807B1CA46B3A040F28E411BE0A94BB5A0F7
:20073C00AEA4009042460194414602930C9803926EA30122049140F27B410AF0EFFFA86999
:20075C003A7806210FF086FA3F7807B1CA469FA040F282410090CDF804A0474602974446C9
:20077C00039443460493A8A30C9801220AF0D6FFCFE0A178924A601D0DF0E0FB2079401ED5
:20079C000CD0401E06D0401E40F0C3804FF49971A1A3C2E64FF48E71A7A3BEE64FF48371BC
:2007BC00ADA3BAE6425554544F4E3000427574746F6E205365727669636500C043434344E7
:2007DC00204368616E6765206D73673A2025732025733A20257300C0A1787B4A601D0DF07C
:2007FC00ADFB2779002F36D07F1E40F0928040464746009040F28111019701220297A2A381
:20081C000397504604970AF089FF618803290DD12079621D0FF048FD776895F8600001282B
:20083C0077D1601D0CF00CFB384631E04FF4C9719CA340460090504673E6C046496E207037
:20085C00726F636573734C756D696E4366674368616E676500C04046474600904FF4B071CB
:20087C000197012202979AA30397504604970AF055FF618801290ED12079621D0FF014FD98
:20089C006079012814BFAE4807980CF0D9FA706809F0D8FA3DE04FF4B87194A3C9E7C046EA
:2008BC0056616C7565204368616E6765206D73673A2044617461205365727669636520531A
:2008DC00747265616D3A20253032783A253032783A253032782E2E2E00C00820414603F02C
:2008FC0095FF16E0537472696E6700C056616C7565204368616E6765206D73673A2025735F
:20091C002025733A20257300800C0020407A06F08DFC58460FF05CFBE86800F021F90FF2DD
:20093C00581A00283FF42FAC0898C008FFF489AB404647460090444640F225110197012214
:20095C00029472A3CDF80C805046CDF810800AF0E5FE377867B195F860007468012807D126
:20097C0007980CF06DFA204609F06CFA40463070287801287FF465AB7248704980220A23E0
:20099C000090102006F0B4FEC0B200283FF457AB404647460090444643464246019740F2FC
:2009BC002A7102940C9803935FA3049201220AF0B5FEFFF746BBC0466F6666006F6E00C073
:2009DC007C2C0020800B00208C1D00201B5B33316D4C4544301B5B306D00C0464C45443055
:2009FC0000C046C01B5B33326D4C4544311B5B306D00C0464C4544205365727669636500E8
:200A1C004C45443100C046C05475726E696E6720257320257300C046496E2070726F6365A1
:200A3C0073734C4D4F66664F6E56616C75654368616E676500C046C0496E2070726F63654A
:200A5C0073734879737465726573697356616C75654368616E676500496E2070726F63652E
:200A7C0073735468726573686F6C6456616C75654368616E676500C06C73735F68616E6478
:200A9C006C65722E6300C046496E2070726F6365737352474256616C75654368616E67656C
:200ABC0000C046C0496E636F727265637420646174612073697A6520666F72205247422094
:200ADC0076616C7565206368616E676500C046C0496E2070726F636573734F66664F6E568D
:200AFC00616C75654368616E676500C0496E76616C6964206C656E67746820666F72206FCE
:200B1C0066664F6E206461746100C046496E206C73735F50726F63657373506572696F64A6
:200B3C0069634576656E74004552524F523A2077726974696E6720534E5600C0AD990000C6
:200B5C00811D0020380B0020DFF800F0F99B0110DFF800F089840110DFF800F0F1BF01107F
:200B7C00DFF800F04FBF01102DE9F84FC04CA178FF2904BF002010F0E5FBA07810F00EFEE2
:200B9C00044604F1680504F190062968086810B10021E1830CE0A87B002804BFA97E002971
:200BBC0006D13078002801BF207F0128608CE0832189E08B4118491C6181204600F06CF92B
:200BDC0001281EBFAB480178012904D121890020491CE08361814FF6FF77A87E01280DD12C
:200BFC00AA8B6189208900F05BF938B1218960894A1C93B298421BD0A88B0FE030780128EE
:200C1C0016D172886189208900F04AF980B1218960894A1C93B298420AD0708892B29042E0
:200C3C0006D03818608180B200F03EF93F18E78304F5967999F8040020B120890021401CE3
:200C5C00E183608104F12E07A87E012811D12189A88B4B1C9BB298420BD1608100F024F9A3
:200C7C008046B988288C01FB080820460CF0CCFD01E0B7F80480B4F81EC022687E4ED2F8A8
:200C9C000CE00CF1010000FB08F340F6C41000FB03F18E44C2F80CE03668DFF8E0E1367803
:200CBC00BEF80080764AB609032E11D1D67BF60748BF4FF000080BD408F101081FFA88F63C
:200CDC00012E12BF668AB9F8066006F2DC5600E0668A5E434FF4C87AB6FBFAF6761C6661D7
:200CFC00AEF80080A3614FF0180894F806A084F820C008FB0AFADFF88CC1DCF800E0236857
:200D1C000EF1080656F80AB0C3F810B094F806A008FB0AFACDF800A0D3F80CB0D4F814A082
:200D3C00ABEB0A0ADDF800B046F80BA094F806A008FB0AFA56F80A609E600EF10C06A37963
:200D5C0008FB03F30EF10C0EF65C06F0F00646F002060EF803604FF0000ADCF800E0A67964
:200D7C000EF1020308FB06F623F806A0464BA6791B68760103F1140AD4F814B05AF806A04F
:200D9C000AEB4B0A03F1140B4BF806A0AD7E022D0BD1A5796D0103F1140697F800B056F894
:200DBC0005A000FB0BAA46F805A0BD88D27BA779D60736D508FB07F70EF10802D659A6F571
:200DDC00A86A0EF1080646F807A0A77908FB07F7D2592768511A3961BA6003F11402A179D5
:200DFC004901575807F5F667575003F11401A27952018958C9F800106843244AA179156B02
:200E1C0003EB41162968401AA0F51670F0612049A07903EB40100B78012B14D10121C17271
:200E3C0014E003F114027F01D1592A464243A1F5E661A2F516729142DED30821204600F0FA
:200E5C0037F8012011E0916A4A78C272A179DCF8000008FB01F281182268516007200D490F
:200E7C00087020460CF016FA0020BDE8F28F00BF684E0020784F0020084F0020F42C0020F3
:200E9C005C4D0020804E0020844E0020A0350100734F00206F4F0020DFF800F035440110A6
:200EBC00DFF800F069860010DFF800F091860010DFF800F0A98500102DE9FF47484C94F8E1
:200EDC00E700002876D13E4E01273C48F57C84F8E770736884F8E6500068C4F81031C0F37F
:200EFC00801084F8E800684610F09EFE002504F10C0001956B468DF80050324902952A46D4
:200F1C000DF062FE304904F130006B462A460DF05BFE2E4904F154006B4681462A460DF09E
:200F3C0053FEB16838468847DFF8B0802848327D08F104030078284E1868C0F3815A22B1E9
:200F5C00BAF1030F04D184F8E170BAF1030F17D0BAF1020F14D0BAF1010F0ED002200FF018
:200F7C0067FA1C480068016804208847012804D030683221B1FBF0F10DE00EF0B9FD12E0C4
:200F9C0002200FF055FABAF1030F0CBF4FF47A7142F210713068B1FBF0F1484610F09DFE0C
:200FBC00484610F09CFE40460068C00802D228460FF03EFA00200090BDE8FF871410094076
:200FDC00CC330100A7C8000025B9000075D90000FD2C0020E0010010E82C0020B03F0050AD
:040FFC00B417002006
:20100000B412000018100000E9E90000FDB301106DC00110FDAE011099B5011000000000F6
:08102000000000002D0000009B
:20102800B01200003C100000B1C00110A9BF011067C0011069B80110000000000000000035
:041048003000000074
:20104C00B012000060100000BDC00110CDB30110D9BD01106DB3011000000000000000005B
:04106C00310000004F
:20107000000000004823002004000000000000000000000020000000E8C9011030000000BF
:2010900028100000502300200400000000000000000000000C000000D8CA0110180000009A
:2010B0004C1000005823002004000000000000000000000024000000F0CA0110180000001E
:2010D00000000000602300200400000000000000000000001000000018CA01102C0000002A
:2010F0000010000070230020040000000000000000000000200000006CCA0110240000008E
:20111000FFFFFFFF782300200400000000000000000000002800000090CA0110240000004D
:20113000FFFFFFFF802300200400000000000000000000001400000008CB011018000000CC
:20115000FFFFFFFF8823002004000000000000000000000058000000B4C90110340000009A
:20117000FFFFFFFF902300200400000000000000000000001000000020CB01101800000068
:20119000FFFFFFFF982300200400000000000000000000001C000000B4CA01102400000095
:2011B000FFFFFFFFA02300200400000000000000000000003800000044CA011028000000BD
:2011D000FFFFFFFFA82300200400000000000000000000005400000078C901103C00000032
:0811F00002000000403501007F
:0411F80001000000F2
:0411FC0000000E00E1
:0412000000000F00DB
:0412040032000000B4
:0412080001000000E1
:04120C005422002048
:0412100000020000D8
:0412140000000000D6
:0412180001C90110F7
:04121C0000000000CE
:0412200000000000CA
:0412240008000000BE
:0412280000002200A0
:04122C00402000203E
:0412300000000000BA
:0412340000000000B6
:0412380008000000AA
:04123C00B0210020BD
:0412400000000000AA
:0412440000000000A6
:04124800080000009A
:04124C00000000009E
:04125000000000009A
:041254000000000096
:041258000000000092
:04125C00010000008D
:04126000D820002072
:041264000600000080
:041268000100000081
:04126C00741F0020CB
:04127000000000007A
:041274000000000076
:041278000002000070
:04127C00000000006E
:02128000290043
:02128200010069
:02128400250043
:02128600300036
:02128800310033
:02128A002D0035
:02128C0001005F
:01128E00015E
:0812900003000000E43401003A
:0812980000000000000000004E
:0412A0000000010049
:0412A4000000030043
:0412A80013C401105A
:0412AC00FF16010028
:0412B000B812000070
:0412B400B81200006C
:0412B8000000000032
:0412BC00F4220020F8
:0412C000A31801006E
:0412C4002000000006
:0412C800FC330100F2
:0412CC00E832010003
:0412D00029C101101F
:0412D400B7FF000060
:0412D8002B030100E3
:0412DC00A1C7011095
:0412E000A3C701108F
:0412E4000000000006
:0412E8003733010097
:0412EC006C2F010062
:0412F000842F010046
:0412F400542F010072
:0212F8000200F2
:0212FA000900E9
:0212FC000100EF
:0212FE000000EE
:0113000001EB
:04130400311801009B
:0413080049FF000099
:04130C00150E0100B9
:041310005D02010079
:0413140081FF000055
:04131800EDF10000F3
:04131C0089C700007D
:04132000091B0100A4
:0413240019E60000C6
:0413280015C70110D4
:04132C0025C70110C0
:201330002DE9F04FBC4C601C04F10801ADF1AC0D0DF0F0FC88A6002000900746299640F26A
:20135000172101970122029787A30397304604970AF0EAF904F16C0528463946E76111F0A3
:201370003DF804F1840004F19001E5600AF076FBA06170B900973846019040F2292102909B
:201390000322039088A3049030460AF0CDF911F021F804F1780004F19C010AF05FFB606162
:2013B00078B90097384601904FF40C7102900322039086A3049030460AF0B6F911F00AF85D
:2013D0006069964910F0B7FB70B100973846019040F2372102900322039084A304903046D7
:2013F0000AF0A2F910F0F6FF05A839462422082310F0ECFF8B4E4FF47A7932250D20DFF861
:20141000208232680B9005AB04F5B070B9FBF2F18AB26A43414610F0D5FF0E2032680B90DE
:2014300005ABB9FBF2F081B2289104F5C2704D432A46414610F0C6FF10F0C0FF85B238467F
:201450000EF0FCFF04200EF0F9FF774A10680109FCD210F0030F10D0744B00F0030001288B
:2014700005D1032010F04EFA18680028FCD1384610F048FA18680028FCD1284610F09AFF6A
:2014900008F0F8FB0A2009F047FE4FF08055D5F8B801C1694FF481608847D5F8B801416A01
:2014B0004FF481608847D5F8B801C16A4FF4816088475F480126624A604B06605D4D1A60D6
:2014D0004FF0FF39C5F82890ADF83C705D4858608DF89860584969605E4898605B4A2E60AA
:2014F000594D2A60A8605A49696026AA40F20530314602F00BFF40F2063002210FAA02F058
:2015100005FF04F1B8024FF44270112102F0FEFE04F1DE0240F20730182102F0F7FE04F1A0
:20153000F600394620220BF009FE04F1F60804F1DE0538462A5C401CC0B229180B78092B4D
:2015500018BF082B02D11F2AC0F286808018C0B22028EFDB85E0C04670726F6A6563745FC0
:201570007A65726F2E6300C0496E697469616C697A696E672074686520757365722074612A
:20159000736B2C2068617264776172652C20424C4520737461636B20616E6420736572763B
:2015B000696365732E00C0464572726F7220696E697469616C697A696E6720626F617264E6
:2015D000204C45442070696E7300C0464572726F7220696E697469616C697A696E6720626F
:2015F0007574746F6E2070696E7300C04572726F72207265676973746572696E6720627543
:2016100074746F6E2063616C6C6261636B2066756E6374696F6E00C0D80A0020F1BF0000B0
:20163000D9CE000078350100004003400C006842282008600400024000040020400400208E
:20165000CE1200110010001110050020BEB8001100100811008000D5491C521E40460AF0D9
:20167000D9FBCDF800803D462998019740F26F21029532460395BFA304950AF055F8C820D2
:20169000ADF83E003C278DF899506423ADF840503146ADF842700DF19902ADF844304FF407
:2016B000447002F033FE4FF4457002210DF13E0202F02CFE40F21330022110AA02F026FE66
:2016D00040F2113002210DF1420202F01FFE40F21230022111AA02F019FEB04F1020062261
:2016F000F423394606F00AF810200722F423394606F004F8394610200822F42305F0FEFF89
:20171000394610200922F42305F0F8FF3946102032461E2305F0F2FF2F460E9530468DF87B
:201730009C500EA98DF89A604FF481628DF89B0004238DF89D709A4D00911020294605F06C
:20175000DDFF0DF19A004FF48062334600902946102005F0D3FF0DF19B0040F202423346E9
:2017700000902946102005F0C9FF27A840F20342334600902946102005F0C0FF0DF19D0030
:2017900040F20642334600902946102005F0B6FF844910204A4605F0B1FF834910204A46AF
:2017B00005F0ACFF1025DFF840A29048904A0095132351460190284605F0A0FF8D4E04F114
:2017D000C9003A46152300903146284605F096FF03203146062201238DF89E000DF19E06CE
:2017F0002846009605F08AFFA8468348C54ECDF8008005235146019006F10C02284605F08E
:201810007DFF0FF2DC2BB94605200090D821CDF804900122CDF808905B46CDF80C90ACA060
:20183000CDF8109009F080FFB74D67782878800010F06DFA0146B548C16041B34FF6FF7044
:201850000EF0B2FB2878800010F061FA0146AF480161E1B14FF6FF700EF0A6FBAB4AC149CE
:2018700040460723009014320191514605F046FF4E4607200090FE210196012202965B4612
:201890000396BAA0049609F04FFFA048077028786678800010F03BFA0146C1488246C16099
:2018B000E1B14FF6FF700EF07FFB40460090BD4901914D490AF14C02062305F01FFF4F46FC
:2018D00006200090EB2101970122029784A30397ABA0049709F028FF8AF80060B248DFF868
:2018F000D4B24149CDF80080072301900BF11002404605F003FF7AA74E4607200090F821B8
:20191000CDF804900122CDF808903B460396A0A0CDF8109009F008FF2878800010F0F7F90F
:20193000A24E01467161D9B14FF6FF700EF03CFB404600909E4901912B4906F118020E23D6
:2019500005F0DCFE0E2000904846019040F251110290012203903B460490C9A009F0E4FE96
:201970002878800010F0D3F9C94D01460029696144D01BE04E616D6520696E2061647665D4
:201990007274446174612061727261793A201B5B33336D25731B5B306D00C0468D010100B5
:2019B0008D530000190D0100A10F01004FF6FF700EF0FAFA40460090CC4901910A4905F1B3
:2019D00018020E2305F09AFE4F460E2000904FF49D7101970122029741A30397C4A00497AA
:2019F00009F0A2FE0AE0C046CD080100CC340100FC130020DDCB00009C310100414904F153
:201A100030004F4688600FF2F8290090012201974B460297E72103972DA0049709F084FEED
:201A30003A4904F1380088600090012201974B46029740F20F1103974CA0049709F074FEAB
:201A500004F14000CAF808000090FC210197012202974B4603974AA0049709F065FE04F175
:201A700048005946C8600090012201974B46029740F20711039746A0049709F055FE04F12C
:201A90005000306140F261110090012201973E4602964B4603967AA0049609F045FE04F13B
:201AB00058002861BA4600904FF4A57101960122CDF808A04B46CDF80CA08DA0CDF810A081
:201AD00009F032FE12A8282239460BF037FB1FE06C65645F736572766963652E6300C04602
:201AF0005265676973746572656420736572766963652C20256420617474726962757465EE
:201B10007300C046681E0020694F0020001C002092491CA828220AF07DF93846012112AACD
:201B300006F0A0FF012012AA014606F09BFF3846012112AA04F072FA012012AA014604F078
:201B50006DFA384628211CAA03F054FF0120142112AA03F04FFF824D6F782878002F41D151
:201B700002E0C0461831010026E0C046627574746F6E5F736572766963652E6300C046C0D4
:201B9000646174615F736572766963652E6300C06C73735F736572766963652E6300C046C1
:201BB000B81A002044310100C8310100C8180020702E0100841C002004F1200129620EF0B5
:201BD000B7FD05F15407CDF800A0024605F14400019005F11C06029762490396AB784046DA
:201BF00005F08CFD604904F12802404605F086FD60780EF09DFD5D490246404605F07EFD3D
:201C100060780EF095FD5A490246404605F076FD0EF022F904F16005404680220A2355490D
:201C3000009505F06BFDC0B2002833D0012650460DF146012A46ADF8466008F067FA0320CC
:201C50006A1C0DF14601ADF84600304608F05EFA49490095404680220A2305F04FFDC0B2C9
:201C700010B3504600900190029003900490299840F2627132462EA309F056FD14E0C046CC
:201C9000616C735F736572766963652E6300C046C0190020504601212A4606F043FE6A1C2F
:201CB0000120032106F03EFE04F58C75514624220823284610F08AFB41F28837012604206B
:201CD0004FF4FA722899C4F830012B464A4307FB01F02A49C4F82C0104F59E70A4F828611E
:201CF00010F070FB2BB0BDE8F08FC046BC2E010067616D655F736572766963652E6300C03E
:201D1000526567697374657265642063616C6C6261636B7320746F206170706C6963617474
:201D3000696F6E2E2053747275637420257000C04552524F523A20556E61626C6520746FC7
:201D500020777269746520736E76537461746520746F20464C41534800C046C0B530010073
:201D700018100020AFF50000111201005188011031810110D5110100AD990000051A010049
:201D90002DE9F04FD44C04F118012046ADF1340D0CF0C0FF00264FF6FF706670012120823C
:201DB00004F1A4000EF09CF9022104F1C8000EF097F9042104F1EC000EF092F94FF0040A9D
:201DD00004F1440810224046314684F802A00BF0B5F904F154091022484631460BF0AEF991
:201DF00004F11C073E6004F10A052E70E671267207206072CDF80080DFF8F88202221020A9
:201E10000346414605F07AFC102003224146CDF80090034605F072FC1020524641460097B4
:201E3000134605F06BFC4FF0080B4FF0030905F12A00079005F17900089005F11E000990D5
:201E500005F15A000A9024350B9517E06078A28FE18FB4F84050B4F8423006280ED1ADF813
:201E70000A20ADF80C10ADF80E50B948ADF810300FF061FF012002A90AF0E0FDA069B34A76
:201E900031464FF0FF33FEF765FE071CF6D0059606A80DF11A0105AA0EF026FA002840F082
:201EB000BD81BDF818102078102940F0B3819DF81A10884240F0AE81059D29884FF6FF72D1
:201ED0008A4200F09C812B78A23B00F07F812E3B40F0A081A978B046002900F03B81891E5C
:201EF00000F00A81491E012940F2D980891E00F09C80491E6FD0491E5CD0083900F0568147
:201F1000891E40F0598194F83A30A888052BADF8080047D001208DF812008D480FF00BFF50
:201F300094F83A0001281ED004281CD003280DD002280BD00598C188ADF80A100189ADF8BB
:201F50000C104189ADF80E10818927E0A08FE58FADF80A00B4F84030ADF80C50B4F842104A
:201F7000ADF80E301AE0A08FE9888842D8BF081CADF80A002989E08F8842D8BF081CADF855
:201F90000C006989B4F840008842D8BF081CADF80E00A989B4F84200884200DC0846ADF856
:201FB000100001E08DF81260A849102002AA05F0A5FB01E1A6480FF0BEFE6B78002B40F0FE
:201FD000FB80E88860822889A0826889E08260480FF0C0FCF0E0AA88B449102005F08EFBEE
:201FF0000798414606220BF0A9F86682A682E682A879207356480FF09EFE95480FF09BFE0D
:202010004FF001084FF6FF702379208253B9A879082812BF84F801A00520607040460FF0B1
:20203000C9FCC9E084F80190C6E06B787BBB291D07980A680260898881800623637068899E
:202050002082E8896082288AA082688AE082E878E07294F83A00012818BF02280BD19949F3
:2020700010201F2205F04AFB4FF47A7180B2414337480DF049FE688900909149CDF804A03A
:20209000EA7810202D1D2B4605F038FB97E06878312840F08880E67084F801A08FE06B780E
:2020B000002B40F08080A878E3896178032815D0E078257923B9012814BF2671E67006E09F
:2020D000054304D0804819460DF01EFE61780729E2D10620607072E018100020062907D042
:2020F000E578002D08BF84F8019068D00220F1E70720EFE7D51101006B78002B53D1EB78C7
:20211000617893B902291DD007291BD0062902D12079012816D1032914D06B480FF01AFCD4
:2021300080B901200FF046FC0CE00EF001FB0246A07962490090089843460190102005F093
:20215000DDFA68706D78002D2DD135E007000080E01000206B7833BB5C485749009002223B
:202170001020034605F0CAFA59484A46524900901020034605F0C2FAED1C099829680160FB
:20219000A98801238180207863700EF0D1FA024601230A9D6079494900901020019505F0DC
:2021B000ADFAC0B258B184F801B008E0AA8841491020052305F0A2FAB8F1010F2AD1256AF0
:2021D00045B32D6835B36078A84723E06879132820D12889012808D1607B022805D11C48B1
:2021F0000FF0A9FD0EF0B2F814E036491020052205F084FA81B216480DF086FD0AE068885A
:20221000C00B07D3334852462B4900901346102005F074FA059808B10FF03FFD2579E0787F
:20223000790830D355EA00032DD0204600788DB9E179257A8DF808100B9A8DF80950136813
:202250000DF10A052B609288AA8005E005160110041100208DF80890617A8DF81010A17A94
:202270008DF811100EF064FA1149024602AB102005F044FA38B1256A84F801B01DB12D6892
:202290000DB15846A847B80803D3134930460AF0D5FBF808FFF4F2AD607B401E3FF4D6AD30
:2022B000401E7FF4EBAD0EF051F8E7E5D5EC000059440110C1170110AD9900000945011095
:2022D00069A6000049150100BC1000205C1000206C10002034100020521000202DE9F04F31
:2022F0000F46CD4C0168E16241688068ADF11C0DE060C548A1608047C448E16A0160A16886
:20231000DFF810A34160E168DFF804938160CE49002FA346C1606FD03D68E8788DF80C00C5
:2023300028798DF80D0003A810F040F8A86808B1C6490160E86808B1C5490160C54C287815
:2023500020706878BE686070A878B268A0703178A2607368E1702E696360EA6926627968D0
:20237000E2620868E06068696062A8697B68A062286A9E68206395F8240084F834001EB97D
:2023900000200EF0E5FF00E066617868C06818B900200EF0DDFF00E0A0617868006918B9B6
:2023B00000200EF0D5FF00E0E0617868406818B900200EF0CDFF00E0206128692062F868E3
:2023D00081680E6806B9D24ED0494FF001084E60C66881F8018036B900200EF0B9FF4D4620
:2023F0002E68F86801E04D462E6000685446FB68A0615868E06107E000200EF0A9FF4D462E
:202410002E684FF001085446361DC749366804F1080350205246B04710B128688068804734
:20243000DBF808008047C24E002781463B46BF487770694660610422337038460DF09EFF2C
:202450000098B0F5801F0CD020B90EF08FFA07F0ADF808E00DF01CF80FF0CEF904207080E5
:2024700001E00EF083FA3846BA4EE0602B68B760986980477060AF4880F8008039464180B9
:2024900014200FF09FFAFF211422A0620FF05BFCE01CFF2102220FF056FC14200FF092FA62
:2024B000A54F38603868002114220FF04CFC002000F052F940460DF0C7FAA0480188FF290A
:2024D00006D1022101807822001D00210FF03BFC03200FF067FF04200FF060FF05200FF035
:2024F00059FF06200FF052FF07200CF05FF8944E0820307006F124000FF044FF0CF014FA73
:2025100006F1360A05200A2152460EF05BFE38B10020C0F10901401C0AF8011B0A28F8DBF2
:202530003078102108F082FC2B68864909200DF10E025E68087001AB10200021B047A06A67
:20255000E1690A260A309DF80E20761E00F8012BF9D1891EE161DBF80C104846884704F148
:2025700020002B68626A059040461E69DFF8D88104F120034146B04710B128688068804764
:20259000B8460EF029FB5FEA000903D009F006FB4FF0FF39002643E00298616910F8062C8E
:2025B000A0F10C07032A03D1002939D0884737E0A16A9DF810C00A223046491E11F8013F8C
:2025D0009C4506D0521E00F10100F7D14FF0FF0A01E05FFA80FA2868BAF1FF0F00F10800CC
:2025F0001CD038790DF054FCB979012904D0022904BF0299887001E002990870029950460B
:202610000EF026FD0CE0C04641490010F8440020D423002038210020641B00200068804743
:202630002868C36904A902AA0DF10F0098470028B2D0D8F800007700C35B6BB9761CF6B21C
:202650000A2EF8DB2BE0C046F42301007508010019150100082000200A2E20DADBF8080034
:202670008047D8F80010002231F807A0CA53DBF80C108847354850F82620667051463046E8
:2026900090470646FF206070DBF808008047D8F800107A5A16437E52DBF80C1088470EF0DD
:2026B0009BFA0746B9451AD007B9294FE069B84238BF071CDBF80800804781462868016A47
:2026D000206A8847626A28681F49059B521C6262C6683846B047DBF80C1048468847E768BD
:2026F0002968A0681431AFB9D8F800000A270026835B33B10969A06888472968D8F80000F1
:2027100014317F1E06F10206F2D107E030230020C3DA0000096988472968143109684FF047
:20273000FF3088472DE7C046A90D010091150100C0230020C4230020EC2C0020041D002090
:202750002C150020FE2C0020D9FE0000703201008EC2F5289C2C00202DE9F84FDFF8BC13EC
:20277000DFF8BC23DFF8BC5308700821002010600D23DFF8B4034FF44E7201704380828085
:20279000DFF8A8030560AC7EDFF8A4030470FF2CE97E417008BFFF292A7F82706B7FC3703C
:2027B000AE7F0671ED7F457115D1FF2A08BFFF2B11D1FF2E08BFFF2D0DD1DFF878130A787F
:2027D00002704B7843708A788270CB78C3700A79027149794171DFF860130278DFF85C83B3
:2027F000DFF85C93DFF85C730A70FF2543784B7082788A70C378CB7002790A714079487177
:2028100088F8005088F8015088F8025088F8035088F8045088F805500020CB490880D9F82C
:202830003440CA49607808702278C9493A70A0780870A2681079C74A411E1170E078C649E0
:20285000C64A0870E068106008B90EF081FD2069C34E306008B90EF07BFD3068DFF804A374
:2028700001688847326852F8041F50468847BE48BE49CAF82000CAF824106069BC49086089
:2028900008B90EF065FDA069BA49086008B90EF05FFDE069B849086008B90EF059FDDFF8DA
:2028B000DCB2B74C9BF804000FF08CF80028206075D09BF80500B34E0FF084F800283060A4
:2028D0006DD09BF80600DFF8C0A20FF07BF80028CAF8000063D09BF807000FF073F8AB4952
:2028F000002808605BD039789BF80000891C484380B20FF067F8A649002888604FD038783B
:20291000002862D0BBF80210484380B20FF05AF8A04A0028506042D038780FF053F89E49C5
:20293000002808603BD0387840000FF04BF89B490028086033D03878182148430FF042F896
:20295000974A106058B3387840010FF03BF89549086020B3387800010FF034F892490860B0
:20297000E8B1387800010FF02DF890490860B0B13878302148430FF025F88D4A106070B127
:202990008C483978007848430FF01CF88A4A106028B138780FF016F88849086018B9BDE803
:2029B000F14F07F0EFB84FF0000B09E00EF0DAFF0021418081600180022303710BF1010B3A
:2029D00039785FFA8BF08842F0D32268694F0120107121680D732068457321688D73206897
:2029F000C57321680D7400212068457400202268D172A0222168487103212068C2800172D1
:202A10000720226850720021206881722821206801224182C2760020216848770022206896
:202A300080F85E200121226811770120216881F85D0001223068027131680D733068457345
:202A500031688D733068C57331680D7400213068457400203268D172002231684871306868
:202A700082724FF420703168C88008818A7401213368D974DAF800201573DAF800104D73F1
:202A9000DAF800209573DAF80010CD73DAF8002015740022DAF800104D740121DAF80030A6
:202AB000DA720023DAF800201171DAF800104B71DAF80010C88008818B720520DAF80020BE
:202AD0009374DAF800103E4AC874106880473968054608688047396851F8042F00209047C3
:202AF000D9F80C101C4B0A881878364902430A802846354A136898470C2134480FF03EFCD9
:202B100040460FF037FC0FF031FCBDE8F44F034800784FF4005108F089B900BF6E4F0020AC
:202B3000044F0020B63F0050604E0020084F00202C4E0020E81200503C4E0020344E002058
:202B5000A03501007B4F00200C4F00206D4F00206B4F0020724F00206C4F0020F04E00205A
:202B7000F44E00207C4B0020D5190100F5190100F84E0020FC4E00208C2B0020E82200202D
:202B9000104F0020144F0020184F00201C4F0020A82C0020684E0020004F0020D42C0020B8
:202BB000804E0020844E0020884E00208C4E0020904E0020F2230020D82C0020DC2C0020B6
:202BD0006C1B0020544F0020701B0020F84D00202DE9F84F0C46E00788B00BD50EF0D2FEEF
:202BF00028B100218160B348006800B1804784F001005CE1A0070FD5002100230691059161
:202C10000491039302910191009101223C200FF0A9FB84F002004AE11D256007A64EA74F6D
:202C300040F18A80002107918B46A5488178FF2904BF00200EF08CFB386890F8A0000EF083
:202C5000B3FD80463868C07A98F82691022818BF032808F5907A06D106F10D000FF07EFB47
:202C700008B906F1070B514648460FF073FB88B33868807A002818BF012804D13146504609
:202C90000FF064FB04E05246494630460FF05AFBFF2834D005FB00F906EB0905062251460F
:202CB000E81D0EF085FC16F80900396840F00209E81D07900622887E00F0010088F826012B
:202CD00005F1010A386800F1140108F590700EF06FFC14E0514648460FF030FB78B15246D3
:202CF000494630460FF02EFBFF2808D006F10D01454348190FF032FB08B949F0020908F180
:202D10002C004B46017806914289120905920122B8F822100491C088079902914008039069
:202D3000CDF804B0CDF800A0002098F806100FF019FB84F00400BAE020060FD5002100236C
:202D5000069105910491039302910191009101223B200FF007FB84F08000A8E0E0044BD556
:202D7000F11D06F10D000FF0E5FA3868017A012918BF042931D1C17A02291EBF0329817E9A
:202D900001292AD1817E00F1140230460FF0DAFAFF2811D04543354405F10D000FF0DEFACC
:202DB00050B9E91D05F10D000FF0C4FA38680622E91D14300EF0FCFB3868C07A022818BF52
:202DD00003280AD106F10D000FF0C8FA28B938680622F11D0C300EF0EBFB3A4842683A4893
:202DF00000784FF480510CF075FB10B18E200AF0A9F884F480505AE0A00505D50EF089FE3B
:202E1000324901200860FEE7600504D507F0B7FB84F480604BE0600405D581200AF092F8EC
:202E300084F4804043E0A10440D5294D286810B100200EF08DFA274E4FF0FF3028600FF097
:202E500075FA3168244D51F8202F684690472349234B486A8A6A009001920293C86A0268F8
:202E7000086A0392ADF810000A6B1178002904BF5068002805D19068002804BFD0680028A3
:202E900006D02970506868609168A960D068E86029463568134A2E6813486B46B047134953
:202EB000086004F0F3FC84F4005000E0002009B0BDE8F08F204F0020AC450020104F0020F3
:202ED000684E0020784E00206E4F0020FC002043044F0020F04E0020684500200820002004
:202EF000851901002C4D0020902B0020EC4E00202DE9F04F09AFADF13C0D08900A9238886D
:202F100009911E46ADF81800101C08BF002000F07581017800274FF0010B401C4FF0FF392F
:202F3000B846DA460A9061E1252940F056810178401C0A902D2918BFADF8068004D101781D
:202F5000ADF806B0401C0A9030291CBF4246434604D10178401C5A465B460A902A29CDF82E
:202F700000804D4617D1049330680A9BCDF80890C01C20F00300001D306050F8044C197850
:202F9000002C009403F101000A9018D5ADF806A06442009413E044460AE0600000EBC400EA
:202FB0004018A0F130040A9801780094401C0A90302901DB3A29F0DBCDF8089004932E2991
:202FD00029D10178401C2A290A9011D13168CDF80880C91C21F00301091D316051F8045C03
:202FF000002D48BF454601782B46401C0A9011E0454643460AE0680000EBC5004018A0F132
:2030100030050A9801782B46401C0A90302901DB3A29F0DB02930AB1224604926C2904D0CF
:203030004C2918BFADF8048004D10178ADF804A0401C0A900BA8CDF80C800FAB079064299C
:20305000059300F0828069297FD0BDF818C075296DD0782969D06F2965D070294ED06329A3
:203070003ED0732922D00A98401E0A90099801281AD966490C68B5F1FF3F03D0A84288BF42
:203090006D1C05D86FF00041814294BF0D1C099D029508A80AA932466B46A04709993F1832
:2030B000091A0398099165E0454617E03068C01C20F00300001D306050F8040CBCF1010F98
:2030D000014608B94FA0014607910EF09FFB0390B5F1FF3F4FD0A8424DD9039528464AE09C
:2030F0003068C01C20F00300001D306010F8040C8DF82C005D46039558463CE00820356809
:203110000490E81C20F00300001D306050F8041C082210230FA80AF095FC401E07904021EA
:203130000170079823E0082302E0102300E00A233068C01C20F00300001D306050F8041C83
:20315000AA42BCBF2A1C04920DE03068C01C20F00300001D306050F8041CAA42BCBF2A1CE6
:2031700004926FF009030FA80AF06CFC07900599081A0390009C241ABDF8065000945DB9AC
:2031900006E008A8202109AA0DF05DFC7F1C009C641E0094F5D50398401EB0F1FF3F0390BD
:2031B0000FD1BDF8060001281CD10098401E009018D408A8202109AA0DF045FC00987F1CC7
:2031D000F4E70798017809AA08A80DF03CFC0798401C079003987F1CDEE708A809AA0DF067
:2031F00032FC7F1C0A980178401C0A9000297FF49BAE089808B14146017038460FB0BDE8CD
:20321000F08FC046286E756C6C2900C084350100BB482DE9F84F0025BA4CB849056094F816
:20323000E200002800F06581012800F02F81B64E02283CD0032840F05C8151F8250CD4F81D
:20325000B8100029A0F5C060C4F8D400B8BF49420028B8BF4042814226DA4FF08057D7F85D
:20327000A4014568B4F8BC0030214FF47F42082300903046A847D7F8A4014568B4F8C00082
:2032900004214FF4F802122300903046A847D7F8A401B4F8D070456820214FF440620A2332
:2032B00030460097A847012584F8D8501CE151F8258C0EF02EFC2F4600B901273946934F62
:2032D00038680028FCD0B146012609F10409D9F82CA03E6009B10EF022FCCAF30720C4F874
:2032F000BC000EF016FCAA4600B9B2463B68002BFCD0D9F800B0BAF1000F3E6001D00EF00F
:203310000EFCCBF38440C4F8C0000EF002FCAA4600B9B2463B68002BFCD0D9F81C90BAF136
:20333000000F3E6001D00EF0FAFBC9F38120C4F8D000B8F5C061C4F8B81000F09C8094F839
:20335000D80068B9C4F8D410D4F8C000C4F8C800D4F8BC70C4F8C470D4F8D030C4F8CC3048
:20337000D4F8D400D4F8BC30002854BF02226FF0010204F1C8010F6800EB400080184210DA
:2033900000EB927207EBA2000860D4F8C810C4F8C43000291CDD1E293CDDD4F8CC0030B9DB
:2033B0003429B4BF15391E21C4F8C81025E02A29BABFD4F8C8000B381E20C4F8C800D4F8D6
:2033D000C4003F28B4BF401C3F20C4F8C4001FE0D4F8CC00032812D011F10B0FC6BFD4F8F3
:2033F000C8000B30301CC4F8C800D4F8C4000028C4BF401E051CC4F8C450032508E011F14E
:20341000150FC6BFD4F8C8001530301CC4F8C800C4F8CC504FF08057D7F8A401B4F8C43048
:2034300030214FF47F424568374800930823A847D7F8A40104214FF40032112345683248E5
:203450000096A847B4F8C860D7F8A40104214FF4F802122345682C480096A847D7F8A401DE
:2034700020214FF440620A23B4F8CC60456826480096A84701E084F8D85040F2FF504045E6
:2034900002D8801C40452FD2082030E051F8251C1F4F4BF2F5204843060A3868C0F38140EF
:2034B00001280CD11B480068006880470CF036FA0EF03BFB3111C010484306EBE03694F86C
:2034D000E50030B91448006820F07F403618760801E084F8E5501148310C06600127416058
:2034F0000F4D8760287808B90B2000E0052084F8E40003F073FFBDE8F88FC0462D400C4038
:203510002C500C40B417002000A00C4000800C40B43F0050EC010010102009403C600C408F
:20353000E13301002DE9F84FB34D696884B0019121B905B0BDE8F04F0EF0F4BE0978DFF8F7
:20355000BC82AF4EDFF8BC92DFF8BCA201291CBF0229042946F2A81741F64C5B05D0402956
:2035700018BF802900F096803CE10EF00FFB0028FAD00198007805F043FC0090446814B950
:2035900000200DF0E5FE9AF8010000285CD000F043F90EF009F902900168009801914F682C
:2035B0000AF096FB022825D000990A78012ADBD196490A68137A19F80310317018B90EF0ED
:2035D000ADFE5844A0602069C17E01F0EF01C1762069C17E41F08001C1762069C17E01F04A
:2035F000F00141F00201C1762269B96888484118D1614BE001980178802911D1082085499A
:2036100030700A78012A03D09AF80100022801DB38690CE0D8F828003A690178D1720DE010
:203630007C49072030700A783869012A02D10121C17203E0D8F828104A78C2720298817903
:2036500001988AF80210C8E0009800288CD00199009A0078914205D101281CBF00200DF0F3
:2036700077FE15E0012840F0BD80684801680A7A19F8020030700EF051FE3918A0680EF046
:2036900049FE18B90EF04AFE5844A0600120A8700098A2E09AF8010000287AD000F0BCF824
:2036B0000EF082F804462068029047689AF802000EF07AF803900EF06FFA10F0070F3DD04E
:2036D000A87805F09DFB019041680198009102990AF0FEFA022831D001990A78012A2AD1CF
:2036F0004A490A68137A19F80310317028B90EF015FE83440098C0F808B000980069C17E62
:2037100001F0EF01C17600980069C17E41F08001C17600980069C17E01F0F00141F0020102
:20373000C176009AB9683A4841181069C16101210198A97051E000200DF00AFE0398A0426A
:2037500025D0029833490278802A12D1082030700978012903D09AF80100022803DB3869C5
:203770000121C17210E0D8F828003A690178D1720AE0072030700978386901290EBF0122B0
:20379000D8F828104A78C272A0798AF80200029823E00EF001FA10F0070F29D0A87805F0C4
:2037B0002FFB04462078D4F80480012820D117490868027A19F8021031700EF0AFFD391878
:2037D000D8F808000EF0A6FD20B90EF0A7FD5844C8F808000120A870204605B0BDE8F04F49
:2037F00007F0E2BB05B0BDE8F04F00200DF0B0BD05B0BDE8F08F00BFA82C0020A0350100A0
:203810006F4F0020289A0110684E0020104F0020F0D8FFFF734F00202DE9FE4FB24C6178B0
:2038300011B900200DF094FD0EF078FD4FF00008074607F6C417C246AC4DDFF8B49228E0FB
:2038500050460DF0B1FF06467079F0B12968B07901F80800394608F101005FFA80F83046C4
:203870000EF054FD30680178402902BF06F182000178012902BF41887289914205D1B1694A
:20389000C088411830460CF0B1F90AF101005FFA80FA99F800008245D2DB6178884505D00C
:2038B00000200DF055FD82200EF02CFD6078012840F0F180002701E07F1CFFB299F8000039
:2038D000874280F2E28038460DF06EFF064670790028F1D02968B0790A7890421CBF00202C
:2038F0000DF036FDB079FDE0286810F809000DF05BFF00684268DAF808109068814204BF10
:203910003E4609F1010900F0D480D6E0286890F800B001224FF4C0710FE0636803F5AD76E1
:20393000835C01FB03F901FB0BFE36F809C036F80E60B44538BF9B46521CFBB29A42ECDB79
:203950004FF6FF700EF0DAFC064658460DF02CFF68490068D0F804A00868D94630F8192048
:2039700060684FF4C07300F10E0103FB09F3C85AB2EBD00F52D2720840F6C41042430092A2
:2039900000275D4A0190029217E058460DF00CFF01680A78802A03D1DAF81030009A5A61B7
:2039B0000978402908D1029980790A6802EB4011009800F5A060C8617F1C47452EDA28687B
:2039D000C05D8345F8D001464FF4C073594363685A1803F5AD73D289595A53088B4202D272
:2039F000521A9045E8DA0DF0DFFE01684A68019B9168DAF808207008A1F6C41103FB00202E
:203A10000EF088FC0028C0D03A48006830F81910491C20F81910286810F807B0296808781B
:203A30000DF0C2FE0026006847684FF4C079464551DA2868805D0DF0B7FE00682968426888
:203A50008B5D606809FB03F3034403F18201087830B15889B1F802C0401C80B2604508DA2C
:203A7000887B01280ED15889098A401C80B2884208DB6EB3B968906801F5C241A8310EF072
:203A900049FC28B3761CF6B2D1E700200DF060FC82200EF037FC617828680EF02BFC28689A
:203AB00000780DF081FE00260068D0F804A04FF00109771CC145FFF617AFF6B2002E1CBFBA
:203AD000F8B200287FF422AF286890F800B037E7296811F806B007490A6800205B4622F8ED
:203AF00013005846BDE8FE8F684E0020004F00207B4F0020D42C0020844E00202DE9F84F35
:203B1000DFF8B8A20F460446F80B80F00B81A64EDFF88882B80F80F0BC80B80880F0B0801E
:203B30003809C0F0318108200EF018F8002840F0A28080200EF012F8002840F09C80684658
:203B500008F0CCF8012803D10098002800F0938091480078002840F08E8000250124E8B23E
:203B70000DF018FE48B1837A3BB1847290F9090004FA00F0C0B20CF0ABF86D1C032DEED33F
:203B900045464FF0030905F1AC0085F810900EF0AEF88348002301680360824950F8082CDB
:203BB00098461A4640F8088C05F134000EF0ABF83068006B8047A968401A010BA869C1F11C
:203BD000FF3282422CBF08444FF0FF30A861287F20B1E868A969B1EBC02F1ED90DF098F948
:203BF000414600B12146081C14D0704840F60901018041464180427B64F303024273027B02
:203C100061F30302027341600DF094FE418811F4406FFBD02C774146A9616548016821F0F3
:203C3000020141F400710160624941F8049C41F230028A600C6050268E600C604FF4CA62EC
:203C50008A600C6041F80C4C4446046002200CF013FA112007F04AF9287818B96868383040
:203C70000EF05DF8687F18B16C7705200CF004FA514868612C740AF0F5FA27F0080783E0BB
:203C900005F008FF45467435286808B927F002077AE00EF032F8B3468146DBF854000168A1
:203CB00004208847D8B1207CC8B1454608352868A8B10646DBF80000E568006B8047801B79
:203CD000E060000BE060A84202D240194008E06040F6C41181422CBFB0F5FA7FE160484604
:203CF0000EF068FB0BF0D8FF90B1A56920466FF4807100224FF00073A847464606F16C05C1
:203D10002868002808BF47F0020701D00AF0AAFA2046646900214FF080630A46A04727F0A1
:203D3000005731E00DF0E9FF51460E6846B306F1280106C90A234FF0E0450B40154008BF39
:203D5000002B1DD106F1280191E8300006F1280393E8060006F12803AA43A14383E806006A
:203D70000EF028FBB16869B1002D08BF002C09D030692246B6F93C10B4682B46A04701E095
:203D90000EF018FB27F4804727B15046394650300DF0CDFFBDE8F88F91250020F8230020AD
:203DB0001410044061E500008C010010542C0020000004600C410440BDAC000078240020EE
:203DD0002DE9F04FDFF8A0B2804609AFFF200E461C460025ADF1240D97F8049007903F888D
:203DF00030780592022805D17068008842F60211814273D030460AF015FF5EA3069018B3DD
:203E1000401E0ED028460090019040F2262102900322039050A304904BA007F085FC0A20F0
:203E30008FE065A00090CDF8048040F2212102940122039744A0CDF8109007F075FC59460E
:203E5000142001F1040911E05DA00090CDF8048040F213210294012203973BA0CDF810905F
:203E700007F062FC5946282001F10209B84214DD07EB040A50450ADBF06805992246C0195D
:203E900007F0C8FFA9F800A00698079013E0284640F231214CA30D2504E028464FF40B71C7
:203EB00052A3072500900190029003900322049025A007F039FC0798FF280DD0DBF8080063
:203ED00050B1066846B1E419A0B20090069A059B41F230114046B047284632E0B9F1FE0F25
:203EF0000CBF0FF22C190FF2441930460AF09AFE00904FF4FC71CDF804800122CDF8089032
:203F10004DA3039510A0049507F00EFC0097059A4046234631460AF0E5F8594608310F68FD
:203F3000051C0DD167B1786850B130460AF07AFE00947C68059B024641F230114046A04750
:203F5000E8B209B0BDE8F08F646174615F736572766963652E6300C0417474726962757450
:203F70006520776173206E6F7420666F756E642E00C046C057726974654174747243422075
:203F90003A20257320636F6E6E48616E646C6528256429206C656E28256429206F66667324
:203FB000657428256429206D6574686F64283078253032782900C04653747265616D00C073
:203FD000537472696E6700C0496E76616C69642076616C7565206C656E6774682077617389
:203FF0002072656365697665642E00C0416E20696E76616C6964206F666673657420776107
:2040100073207265717565737465642E00C046C02D20726573746F72696E6720626F6E644A
:20403000656420737461746500C046C02D204F5441207772697465005772697465417474F0
:20405000724342202843434344293A20706172616D3A20256420636F6E6E48616E646C6573
:204070003A20256420257300B81A00202DE9FE4FDFF84492914E99F80000914A914D92498F
:204090000D2873D8DFE810F016010E000E000E000E000E010E0191000E01CD00CD00EB0037
:2040B000EB00F200326041F2044A8849DFF820824A88884C52451FBF4B8B53454B8E5345BC
:2040D0004FF4A0572DD1DFF810B2DBF80000006800F108010079032816D1D1F80E00002840
:2040F0001CBF088B00280FD091F8220010F0E00F0AD101F11E000EF0F9F8012804D1A5F82C
:2041100000A07648306084E099F8001002290CBF44462F8034600020DBF800100A681071E3
:2041300077E0002A2A8039D0521E3CD0521E35D040F2FE33D21A1AD0121F012A1DD94FF47C
:204150007F73D21A1BD04FF44063D21A0FD0921E012A0CD9121F0AD0521E012A0DD940F257
:20417000F933D21A012A19D9121F08D09AE0022814BF2F80444634604BE0594CFBE759485A
:204190000268137A012B05D141F20240488048834886F0E74F804F834F86ECE700200DF003
:2041B000D7F8832082E08F2080E04F488178FF290CD0326018204D4A414310684C4A831CE6
:2041D00040F204445B5A2B801B1B012B72D94FF47F741B1B0FD04FF440641B1B032B84BF6F
:2041F0005B1F012B0BD99B1E012B63D940F2FD341B1B08D103E0801C41F201434352326075
:2042100006F068F805E000200DF0A2F885200EF079F803B0BDE8F04F36480078012106F0E3
:2042300005BE40F204424888288090421CBF41F2084290423ED041F60402904211D12E4C46
:204250002E4B0020CDE9004002222D4C2D482468006854F8086FB0472B4908802AE0488829
:20427000288000200DF074F885201FE04888288002280DD940F20442801A1BD040F6FC7230
:20429000801A05D0083815D04FF47F72801AE8D1887B801CC2B2B52AA8BF662088730020F9
:2042B000488007E000200DF053F88420BDE8FE4F0EF028B8BDE8F78F6F4F0020204F0020CB
:2042D000CF1C0100504F0020CC4C0020204A0020B1540110615A0110F44B00205955011061
:2042F000755B0110104F0020684E0020804E0020313901106E4F0020020000802501010089
:20431000F04E0020EC4E0020424F00202DE9FC41A0F2013714468846022F40F232819B4EE0
:204330009C493F1F0F2F04D9143F4CD0BF1E1CD011E0DFE817F0CF00C9000D01FA00C100B7
:20435000B9002601AF00A700100010009D008F007F00740066002D2880F21381B8F1020F5D
:2043700040F00F818849238807E1B8F1010F40F00881F078012800F00481324620781179F7
:20439000107189B9002800F0FC805078012800F0B580042800F0B280062800F0AF800528D8
:2043B00000F0AC80BDE8FC812078002840F0E9805078032800F0AF80072800F0AC800528CC
:2043D00040F0DF80A7E0B8F1010F40F0DA802078012840F0D68006F1EC000DF0BBFA002870
:2043F00040F0CF803446002004F13A0108F026FB002840F0C68004F1C8000DF09CFCBDE8B6
:20441000FC81B8F1020F40F0BC8020880A28C0F2B880B0F5486F00F3B4808E1C17E0B8F158
:20443000020F40F0AE802088B0F5FA7F80F2A9800E460CE0B8F1020F40F0A3802088062879
:20445000C0F29F80B0F5486F00F39B803E363080BDE8FC81B8F1020F40F0938020880628F8
:20447000C0F28F80B0F5486F00F38B803C36EEE7B8F1010F40F085802078062880F28180A3
:20449000454E0EE0B8F1010F7BD12078042878DA0A3606E0B8F1010F73D12078082870DA3B
:2044B00009363070BDE8FC81B8F1010F69D12078042866DA0836F4E7B8F1010F61D1207858
:2044D00004285EDCF61DECE7B8F1020F59D120880E36BCE7B8F1010F53D13079012850D03E
:2044F00032462078D178D07069B9002849D05078012803D0042818BF052842D101200DF08B
:2045100059FABDE8FC81207800283AD15078022818BF052835D110780CF00AF91C4902461B
:20453000102003F0EBF8BDE8FC8106F1830500211F22284608F002FE21464246284607F0A8
:2045500069FC44463078B4710CF0F2F8002311E006F1640500211F22284608F0EFFD21461A
:204570004246284607F056FC4446307874710CF0DFF801230094094901950246102003F0F7
:20459000BDF8BDE8FC81C0468D0101001810002099450110581000205210002009450110FF
:2045B0002DE9F04F8246DAF80070DAF804600C465FEA0208ADF11C0D14BF00214FF0FF3187
:2045D000DFF8409248460DF052F9002818BF0B2040F0158100258F488C4905708A48FC60E8
:2045F00052460DF090FB317B27200DF08EFBB8F1010F07D0657002200BF020FF06200BF050
:204610001DFF01E0012060702078012840F2AA80801E012868D9801E012833D9801E0128DD
:2046300000F2DE800DF069FB83464FF0805000F5EE77D0F8DC01A378466A0093217828467D
:20465000062908BF0120019001200290A068228AE1686368B047814658460DF0ABFEB9F17B
:20467000000F40F0BF80B8F1000F02D00CF070FF02E050460BF09CFD002800F0A3803868D0
:20469000806A2AE00DF039FB83464FF0805000F5EE77D0F8DC01012306680093A168A278C6
:2046B00060682478AC46042C08BF9C466346B047814658460DF07EFEB9F1000F40F0928042
:2046D000B8F1000F02D00CF043FF02E050460BF06FFD002876D03868406880474C49C1F858
:2046F000B0510D6081467DE00DF007FB83464FF0805000F5EE77D0F8DC01E38A8669009353
:20471000E0680190208B0290A0780390207D04900121059122782846022A08BF081CE17867
:204730006268A368B047814658460DF043FEB9F1000F57D1B8F1000F02D00CF009FF02E0A9
:2047500050460BF035FD00283CD03868006A80475FEA000946D1E078A168E28A236908F0C7
:20477000B1F9BFE70DF0C9FA83464FF0805000F5EE76D0F8DC01E38AC7680093E06801903B
:20479000208B0290A0780390207D2946049001200590257805B9014608466268A368E178AD
:2047B000B847814658460DF005FEB9F1000F19D1B8F1000F02D00CF0CBFE02E050460BF020
:2047D000F7FC08B914201AE03068406980475FEA000907D1306802692169E078904781E791
:2047F0004FF0FF39B8F1010F05D002200BF044FC06200BF041FC03480DF091FA484607B0D1
:20481000BDE8F08FC81E0020001F0020810A010050450240FC2C0020F0B507460020ADF1C4
:204830001C0D0E46044664A500900322019464A30294DD2103942846049406F075FF64A3A5
:20485000B81E09D0801E00F09F80401E7ED0401E5ED0401E3CD01BE0012E0CD0009401941B
:2048700028460294F02103940322049406F05CFFF1215AA394E00094019428460294EB21B2
:2048900003940322049406F04FFFEC2158A387E000940194284602944FF4847103940322E0
:2048B000049406F041FF00942046019040F2091102900322039054A30490284606F034FFD7
:2048D00001208DF817009DF817000028FBD171E000940194284602944FF4817103940322FC
:2048F000049406F021FF00942046019040F203110290032203904AA30490284606F014FFE7
:2049100001208DF816009DF816000028FBD151E00094019428460294FC210394032204945D
:2049300006F002FF009420460190FD2102900322039040A30490284606F0F6FE01208DF808
:2049500015009DF815000028FBD133E00094019428460294F62103940322049406F0E4FE11
:20497000009420460190F72102900322039036A30490284606F0D8FE01208DF814009DF844
:2049900014000028FBD115E00094019428460294E32103940322049406F0C6FEE4212EA3F5
:2049B0000094204601900290039003220490284606F0BAFE07B0F0BD6D61696E2E6300C008
:2049D0003E3E3E535441434B20415353455254002A2A2A4552524F522A2A2A003E3E20493A
:2049F0004E5445524E414C204552524F522100C03E3E20494E5445524E414C2046572045ED
:204A100052524F522100C0463E3E2044454641554C54205350494E4C4F434B2100C046C00F
:204A30003E3E2057524F4E47204150492043414C4C2100C03E3E204943414C4C2054494D1B
:204A5000454F55542100C0463E3E204943414C4C2041424F525421003E3E204F5554204F25
:204A700046204D454D4F5259210070472DE9F04F09AF8846ADF12C0D1C460025DFF834A229
:204A900097F804900690FF203F88099098F800000792022806D1D8F80400008842F60211FD
:204AB00081426CD0404608F083FB0890401E1BD0401E14D0401E0ED028460090019040F2CB
:204AD000B1210290032203904BA3049046A006F02BFE0A2085E0504600F10E0A02E050467D
:204AF00000F10C0A012603E05046022600F10A0ABE42059022DD07EB040B5E4518DB5E4504
:204B100005DDB9F1180F10D0B9F1120F0DD0D8F80C0007992246C01907F07CF95E451BDC87
:204B3000AAF800B00898099016E040F2C62101E040F2BD21284637A30D2504E028464FF4CB
:204B50002E713DA3072500900190029003900322049025A006F0E8FD0998FF280DD00598B9
:204B7000006950B1066846B1E419A0B20090089A079B06984FF40071B047284631E0B9F1C1
:204B9000FE0F0CBF35A63CA6404608F011FB0090DDF8189040F28A21CDF8049001220296E8
:204BB00038A3039510A0049506F0BEFD0097079A23464146484609F095FA06465046103018
:204BD00007686EB967B1786850B1404608F0F0FA00947C68079B02464FF400714846A04743
:204BF000F0B20BB0BDE8F08F616C735F736572766963652E6300C0464174747269627574AE
:204C10006520776173206E6F7420666F756E642E00C046C0496E76616C69642076616C7574
:204C300065206C656E677468207761732072656365697665642E00C0416E20696E76616CB4
:204C50006964206F666673657420776173207265717565737465642E00C046C02D2072655B
:204C700073746F72696E6720626F6E64656420737461746500C046C02D204F544120777251
:204C9000697465005772697465417474724342202843434344293A20706172616D3A20252F
:204CB0006420636F6E6E48616E646C653A20256420257300C81800202DE9F04F09AF8846F0
:204CD000ADF12C0D1C460025DFF834A297F804900690FF203F88099098F80000079202282E
:204CF00006D1D8F80400008842F6021181426CD0404608F04DFB0890401E1BD0401E14D03E
:204D1000401E0ED028460090019040F282210290032203904BA3049046A006F005FD0A200F
:204D300085E0504600F10C0A02E0504600F10A0A012603E05046022600F1080ABE42059084
:204D500022DD07EB040B5E4518DB5E4505DDB9F1180F10D0B9F1120F0DD0D8F80C00079953
:204D70002246C01907F056F85E451BDCAAF800B00898099016E040F2972101E040F28E21D6
:204D9000284637A30D2504E0284640F289213DA3072500900190029003900322049025A08B
:204DB00006F0C2FC0998FF280DD00598006950B1066846B1E419A0B20090089A079B06985D
:204DD0004FF4A061B047284631E0B9F1FE0F0CBF35A63CA6404608F0DBFA0090DDF818906A
:204DF00040F25B21CDF804900122029638A3039510A0049506F098FC0097079A2346414673
:204E1000484609F06FF906465046103007686EB967B1786850B1404608F0BAFA00947C6838
:204E3000079B02464FF4A0614846A047F0B20BB0BDE8F08F67616D655F7365727669636554
:204E50002E6300C041747472696275746520776173206E6F7420666F756E642E00C046C031
:204E7000496E76616C69642076616C7565206C656E6774682077617320726563656976650E
:204E9000642E00C0416E20696E76616C6964206F6666736574207761732072657175657333
:204EB0007465642E00C046C02D20726573746F72696E6720626F6E646564207374617465BA
:204ED00000C046C02D204F5441207772697465005772697465417474724342202843434344
:204EF00044293A20706172616D3A20256420636F6E6E48616E646C653A2025642025730032
:204F1000C01900202DE9F04385B011F8017B0446082F04F1FD0004F1FC0804F1760504F5B0
:204F3000A076844A844BDFF8149213D0092F21D00F2F2FD0112F01BF287801286878102807
:204F500040F0D5800A78327648787076012184F83D11EBE00025521C4E5D5F5D3E434E5517
:204F7000575D3E4046556D1C082DF5DB204608F079FE74E00024571C0D5D1E5D35430D5547
:204F90003A5D15400555641C082CF5DB022088F80000CBE098F80100820704D410F0110FD8
:204FB00057D01A2266E008784A7800EB02203080CA78887800EB022070804A79087900EBCB
:204FD0000220B080CA79887900EB0220F080087A30724A7A887A02EB00227281C87A0A7BFB
:204FF00000EB0220B0818A7B487B00EB0220F0810A7CC87B00EB022030828A7C487C00EBE0
:20501000022070820A7DC87C00EB0220B082487D897D00EB0120F082494801788A0658BF68
:205030001A2212D504F5A670049071890391307A029021890191F0880090B388728831889E
:20505000204608F0CDFAE0B11E2298F80100410710D40F2088F8150020460DF043F9002802
:2050700064D199F8000005B0BDE8F0434FF4804105F0DCBE204605B0BDE8F0430F210DF01A
:205090002DB97088A882B188E9820221F0882883297400206882A18EA88AC91DE981618EC7
:2050B000B0EB510F02BFE88AA18E884202BF288BE18EB0EB111F18D02878012804BF6878B7
:2050D0000F2805D0687918B10F21A972FE2127E0FC2120460DF0FEF8F0880090B3887288E6
:2050F0003188A0790DF0F2F820E0102118E0491E20460DF0E7F8032F18D1A878042818BFD7
:205110000D2813D16E78142E18BF0E2E0ED12F7820460DF0D3F8012F06BFAE72FD213146CD
:20513000204605B0BDE8F0430DF0D4B805B0BDE8F08300BFEC4D0020C42C00206E4F002011
:20515000144E002010B50B7884074CBF43F0020303F0FD0304064CBF43F0800303F07F0374
:2051700004074CBF43F0080303F0F70384064CBF43F0200303F0DF0310F0AA0F0B7003D017
:20519000107840F00C0003E018B9107800F0F300107010BD2DE9F8430D460027287802283A
:2051B00014461E4667D1696808784978DDF8208000EB012080B25FEA08021CBFB0F5285FCA
:2051D0000B205BD14FF42851401A08D0401E21D0401E2FD0401E25D0401E31D04BE0DDF81C
:2051F0002490E8680CF0B1FD80B2A0EB08024A45BCBFA0EB08001FFA80F909EB08001628C1
:2052100006DAA6F800904A46E86800EB08010DE00D2732E0E8680088022131802070000A23
:2052300060702AE0062030800622E96820460CF0BFF922E001203080E9680A7822701CE0E7
:20525000E868B0B1082131800288227003881B0A63704188A1704288120AE2708188217167
:205270008288120A6271C188A171C088000AE07103E0308001E0378001273846BDE8F2833C
:205290002DE9F0470F46814638780024022890461D466DD17868089E01784078DFF8D8A01A
:2052B00001EB002189B24FF42852891A06D0491E29D0491E4ED0491E39D059E0F8680CF076
:2052D00044FD80B2B04204D3A919162903DB0D244FE007244DE0FB682A46414698190CF0E4
:2052F00067F9AD19F868ADB2C5F11602002140190CF029FDDAF8000000281CBF0268002AE6
:2053100037D0002123E08EBB022DE0D198F8000098F80110FA6800EB01201080DAF8000028
:2053300000281CBF0268002A23D001210FE0EEB9062DCCD1F868062241460CF039F9DAF83C
:20535000000000281CBF0268002A12D00321484690470EE056B9012DB9D198F800000028CE
:2053700013BF0128F9680870802402E00B2400E001242046BDE8F087E42C00207CB5894DD6
:20539000144602460026A2F58062182A1AD8DFE812F0FE00F800F100E900E200DC00D5005C
:2053B000D0001900C500BE00B700AE00A3001900190080006F00680054004C0042003900C5
:2053D0002C0024002D2880F28580022940F0828021880AF0D3FE0646E1E0012940F0DE800B
:2053F000002C00F0DB801135A6E0102940F0D680002C00F0D38028465030102221460CF0A9
:20541000D7F8CCE0012940F0C980002C00F0C68029468D1D90E0262940F0C080002C00F098
:20543000BD8005F160002622E8E7012940F0B680002C00F0B3806D1D7EE0602900D13CB99C
:20545000012940F0AB80002C00F0A8800D3573E005F18600214660220CF0AAF801206873DF
:205470009DE0012940F09A8020780CF023FF96E0012940F093802078022800F38F800C358D
:2054900028702078022814BF301C01200CF00EFF85E0072940F08280611C684606220BF044
:2054B00081FF20786946324606F09AF804460A2C10DA0CF0F7FE38B9204603F0C7FD0BF0B1
:2054D0009FFB09F031FA6AE02A46012002F12C05285564E0022662E001295FD1A87B2178BE
:2054F0000028A9735BD12078012858D1E9E7012954D12478072C51DB102C4FDC0B3537E06A
:2055100001294BD124780A2C48DA093530E0012944D12478022C41DA083529E000293DD152
:205530000CF0C0FE10B90CF0D7F8C8E701240F351EE0012932D10A35247819E001292DD1CE
:205550002478022C2ADAED1D12E0102926D12B4603F1400051E7012920D12478022C1DDA88
:205570002D1D05E0012919D12478042C16DCED1C2C7014E0012911D12478022C0EDAAD1CFA
:20559000F6E702290AD120881435288007E0012904D12478022CD8BF6D1CE9DD1826304635
:2055B0007CBDC0462C1500202DE9FE4F05467B48002400680094C00905D37948007810B907
:2055D00020200AF00FFE012D40F0E280DFF80092D9F8DC00012840F0D8800220C9F8DC002E
:2055F0000BF056FF01200AF0FDFD5FEA000805D00120C9F8DC000BF057FFCBE00CF093FBCC
:20561000A34602906748684DC0F800B0A86A016801208847012804D1584608F08FFB012089
:2056300000906248624FC0F800B0386811200CF08FFA00B1012410200CF08AFA08B144F03E
:2056500002040F200CF084FA08B144F004040B200CF07EFA20B12868564E016B30888847FF
:205670000A200CF075FA20B12868534E016B308888475248012606602868816944F020009B
:2056900088474F4806600CF05DFA00F001010191400814D2286A81684A4888478246BAF1DA
:2056B000040FF7D0BAF1010F04D1286A42684548032190474449086820F003000860584696
:2056D00000F088F82B683868986B8047019801280CD0BAF1010F04D1286A426839483146EB
:2056F00090473949086840F0030008602F48066028684169204688470B200CF029FA20B1CF
:2057100028682C4BC16A188888470A200CF020FA20B12868284BC16A188888472748066055
:205730000322C9F8DC20264BC3F800B02868416B204688470128F9D1386804200AF052FD2A
:205750000446184806603868144800688009FBD30098012802D1304608F0F0FA0CF0DFF9AE
:2057700008200AF03FFD07460298C9F8DC600CF095FD1648008807F0DDFF0BF095FE57EAC1
:20579000040018BF4FF0FF3804E06FF0040801E06FF001084046BDE8FE8FC04614100940E5
:2057B0009C1800200C400940B8010010000222432C200940362F0100322F01002820086033
:2057D000800104430040034024220840DC330100B41700202DE9F84FDFF804B20746ABF112
:2057F0003500DFF8F0810068800880F0E28075480068006880477E490831D1F80090002588
:205810004FEA29715FEA995201F101010AD2C0F13E0210F10A0F4FEAE202D8BF08229142E5
:20583000B8BF111C684BD3F87C21C2F30462162AA8BF203A1B68C3F30443162BA8BF203BFA
:205850009A465218162A05DA12F10A0FB8BF6FF0090200E015225D4B5D4E02F01F0141F421
:20587000F8511980316811F0030F18BF0125C90828BF45F002050FB145F00405434693F986
:205890000710411A052904DA9979A94208BF99886FD0DFF844E10F28A0F10F0829DB08EB84
:2058B0000011A1F1F0084FEA28210091072984BF07210091062988BF06215EF82160042462
:2058D000774604EB81043C594FEA950CA41BEE0804F0FF0124BFC4F3072631446F08AE0806
:2058F00024BFC4F3074631446E0828BF01EB146104E000214FEA950C6F080091009C5EF8A5
:2059100024E05FEA5C060EF0FF0424BFCEF3072634447E0824BFCEF3074634446E0828BF32
:2059300004EB1E64009E89B2A8EB06267143803104EB1124AAEB02010029D8BF01213422F5
:2059500009F0FF074A4391B24FF6FF727943B1FBF4F18A4238BF111C802889B2998005DA9A
:2059700010F1800FB8BF6FF07F0000E07F20D8719D711A4800681F2918604FF0000008D3B8
:2059900040F2FF128A4206D24908401C8A42FBD301E01F219980134F0F39090940EAC100E8
:2059B00047EA0001CBF8FB1F0026CBF8FF6FBDE8F88F0D490D4F434608200F609B1D187033
:2059D000BDE8F88FEC0100103C1100506E62084024220840CC2C00209C13005008200940C3
:2059F0003500094000E7A48030100940FDFDA400AC3F00502DE9F04F804C0546E06893461F
:205A10000F462E1CADF1140D16D0761E06D00095002040F2311139A305465BE006460020D1
:205A300047A240F22D1104F1040804F1100914254FF0010A84460AE0002043A24FF491716D
:205A500004F1020804F1240928258446E24600920197034602900122CDF80CC023A00493C3
:205A700030A305F061FEBD422FDB484659463A4606F0D0F9BAF1000FA8F8007032D0B07886
:205A9000002808BF32A103D001280CBF37A13DA13088002700903D46012201913EA3029796
:205AB00040F24111039511A0049505F03DFE06200090534F207804F14C0349462A4601907C
:205AD0003046029705F08CFC0CE0009700204FF4A5713CA30190029503900322049003A038
:205AF00005F022FE05B0BDE8F08FC046646174615F736572766963652E6300C053657450EB
:205B10006172616D657465723A20506172616D6574657220232564206E6F742076616C6920
:205B3000642E00C0536574506172616D65746572203A202573206C656E3A20256400C046DC
:205B500053747265616D00C0537472696E6700C01B5B33336D4E6F74692F696E6420646998
:205B70007361626C65641B5B306D00C04E6F74696669636174696F6E20656E61626C656405
:205B900000C046C0496E6469636174696F6E20656E61626C656400C0547279696E67207471
:205BB0006F2073656E64206E6F74692F696E643A20636F6E6E48616E646C652025782C20FB
:205BD000257300C04C656E677468206F75747369646520626F756E64733A204C656E3A2060
:205BF0002564204D696E4C656E3A202564204D61784C656E3A2025642E00C046B81A002058
:205C1000F57F00002DE9F0410446804DA178A869ADF1180D891F00F0F280C91E00F0DD8077
:205C3000491E5FD0491E48D0C91E3CD0481E40F0E980287A697AB8B96878002831D0A08826
:205C50000CF028FB071C00F0DD80A07A40080FD3787968B1E168890A0AD2B91D01AA05F029
:205C7000BFFC0A2804D10321A0880CF00FFBC9E0287B022802D1A07A0009F4D3A0887979B3
:205C900004F1080201F072FCA869002800F0BA804368002B00F0B68000210A46A0889847BF
:205CB000B0E00521E0E7002800F0AC804368002B00F0A88062780221F0E70BF06BFE0028C5
:205CD00000F0A080A86950B1076847B1206900906189227B637BE01C3C46A04792E06089ED
:205CF0000121C2E767784FF00008002F66D1A179490863D3EF69002F60D101A841460E2284
:205D10000CF021F8A0880CF0C5FA071C7AD0606940B97879B91D06228DF80A0001A80BF02A
:205D300047FC19E06669307C062206F111018DF80A0001A80BF03CFC07F10C00B91D0622FE
:205D50000BF036FCB81D062206F111010BF030FC307C40F002007871A079C00839BF387988
:205D700000F0FD00387940F002003871A079000939BF387900F0DF00387940F02000387156
:205D9000A1799DF81120C1F3800010438DF81100080905D39DF8110040F008008DF8110099
:205DB00001A8214600F022FD28B92878022105F03DF8404627E0A8694FF0150810B343687E
:205DD00003B3A088627801219847B8F1000F19D0A86943680321424660E7E078211D0022F2
:205DF00005F0FEFB0A280DDA410001EB800004F10C0225300421C0B203F0D0FD02E0A08826
:205E100008F060FF012006B0BDE8F0812C1500202DE9F04F044672488E46016894461F46F8
:205E3000BEF1000FADF13C0D4DD0BCF1000F4AD09EF8002001209040014244D0BCF8000008
:205E5000B0F5C15F32D1DCF81400DCF81860654BDCF81C50DFF890A10B904FF003080DF15B
:205E700028090C9618680D95C0F3036B59F8046FCEB10021351F05200B4655F8042FB2F1AB
:205E9000FF3F10D0924506D0401E01F1040103F10103F2D107E0052B05DA705820F47020B5
:205EB00040EA0B407050B8F10108DFD1C4F804E0C4F808C00BF021FF4C4D8046287820B12C
:205ED00040460CF077FA002087E0FAF7FBFF4849086840F00200086007A80BF033FD0026B2
:205EF00005F1D00007AA4349099609F053FD424905F5827007AA09F04DFD07A80BF0EAFCAC
:205F1000FF20192107AB3D4A089005F1340009F0C7FC3B4A05F150001A2107AB09F0C0FCF4
:205F30003849324605F18800134608F053FE3649324605F1AC00134608F04CFE334A05F191
:205F50002000042133460AF0BBFD0E2005F0E4F805F174000BF0ECFB05F16C000BF0E8FB36
:205F70002E740523EB60072085F898012E77AE616E772849AE60264A69612B781670581CD0
:205F9000287040460CF016FAB1461FB968460BF0E3FB6F4638682060388A60820120607403
:205FB0007B6813B940F6C4130646E3601A48A06126746061F86800B1A061B86800B1606124
:205FD0004946582204F1200007F0B8F804F1380049460AF031FC6C6020460FB0BDE8F08FF4
:205FF000D4210840541300500200F844F823002000200940E9140100DDA8000061E50000F2
:20601000F1DE0000010F0100B912010051EF0000F62C0020BDAC0000EFB500002DE9F047E8
:206030007C4C2369E5680F4691460FF2D40A011CADF1180D11D0491E07D0002207461546DB
:2060500040F2471133A328464DE043A040F24311A61D04F102081D4605E041A04FF49C7191
:20607000261D04F1010800900197002002900122039032A30490504605F056FB022F2CDAC3
:206090005FB3404649463A4605F0C4FE3780A878002808BF34A103D001280CBF39A13FA176
:2060B0002888002700903E460122019140A3029740F2571103965046049605F035FB072005
:2060D0000090554F207804F114034146324601902846029705F084F90FE0012200204FF45A
:2060F000B0713EA315460097019204460295032203905046049405F017FB06B0BDE8F08769
:20611000627574746F6E5F736572766963652E6300C046C0536574506172616D657465725F
:206130003A20506172616D6574657220232564206E6F742076616C69642E00C0536574507D
:206150006172616D65746572203A202573206C656E3A20256400C046425554544F4E310077
:20617000425554544F4E30001B5B33336D4E6F74692F696E642064697361626C65641B5BE8
:20619000306D00C04E6F74696669636174696F6E20656E61626C656400C046C0496E646976
:2061B000636174696F6E20656E61626C656400C0547279696E6720746F2073656E64206ECE
:2061D0006F74692F696E643A20636F6E6E48616E646C652025782C20257300C04C656E67BE
:2061F0007468206F75747369646520626F756E64733A204C656E3A202564204D696E4C659A
:206210006E3A202564204D61784C656E3A2025642E00C046001C0020957E00002DE9FE4FEF
:206230000E468246307AC10693461F464FF000090CD558460CF026F8030000F0E8800A221B
:206250003146504698475FEA00094DD130780C9D0D9CDDF8388002281AD17068017840782D
:2062700001EB002189B24FF42052891A012910D9891E3AD0491E14D0FD397AD0491E00F088
:206290008180491E6DD0491E73D0491E00F09580ABE0002C2AD1F0680178298002784168E4
:2062B00087E0002C22D101202880F1680A783A7000217089401C80B20BF0E0FF298860B1B6
:2062D0000278921C51182980418979704289120ABA7041680278F81C6CE0091D2980042238
:2062F0000021781C0BF02FFD93E0002C66D1F0680688042129803E70320A7A700DF1020153
:2063100030460BF0BBFF040021D0D4F80C80BDF802204FF6FF766B4631460BF0ABFF40B99E
:20633000237862683C4802210BF0A0FF08B9ADF8006098F8000002280BD1D8F80410022243
:20635000381D0BF035F92888801C288001E0ADF80060BDF80000B870BDF80010090AF970B7
:2063700057E0002C2AD1F068016850460BF0A2FA02E01CBBF0680088022129803870000AAA
:20639000787046E0F0680BF0E0FC80B2A042B8BF4FF007093DDB844208BF002205D008EB47
:2063B00004028242B4BF4246021B2A8092B2F068011938460BF0FCF82BE014B14FF00B09FB
:2063D00027E0F0680721298002783A7043787B704188B9704288120AFA7001793971C28803
:2063F0007A71C088000AB87113E058460BF03AFF5FEA00090BD00F980290CDF8048000941F
:206410002B463A4631465046C847814601E04FF00E094846BDE8FE8F7C3101002DE9F04F9E
:2064300009AF3D7981461C468A460846ADF1240D3F88069208F096FC0026FF214BA3DFF8D4
:20645000C8810790089108B3401E0ED030460090019040F2EB110290032203903CA304903A
:2064700037A005F061F90A2066E051A00090CDF804904FF4F37102940122039730A0049539
:2064900005F052F9404600F1040B0FE04AA00090CDF804904FF4EC7102940122039728A0A9
:2064B000049505F041F9404600F1020B05901FBB07EB0408B8F1020F18DAB8F1000F03D1DB
:2064D000182D10D0122D0ED0DAF80C0006992246C01905F09FFCB8F1000F1BD0ABF8008056
:2064F0000798089016E040F2FF1101E04FF4FB71304633A30D2604E0304640F2F11139A3A4
:2065100007260090019002900390032204900CA005F00AF90898FF280DD00598806850B171
:20653000056845B1E419A0B20090079A069B41F210114846A847304609B0BDE8F08FC0469D
:206550006C65645F736572766963652E6300C04641747472696275746520776173206E6FF3
:206570007420666F756E642E00C046C05772697465417474724342203A20257320636F6ECA
:206590006E48616E646C6528256429206C656E28256429206F666673657428256429206D10
:2065B0006574686F64283078253032782900C0464C45443100C046C04C45443000C046C022
:2065D000496E76616C69642076616C7565206C656E67746820776173207265636569766597
:2065F000642E00C0416E20696E76616C6964206F66667365742077617320726571756573BC
:206610007465642E00C046C0681E00202DE9F04F754F1E46ADF1340D01914FEA9609029239
:206630003D680090710809F1020221F0010105EB8200091D0390901805EB8000049050184C
:2066500005EB80038018059305EB8000079026F0030000F1080802EB080005EB80034018A6
:206670000893801805EB80000990C6F39C008000083002EB4000411805EB800305EB810B4C
:206690000A938918831805EB8104404405EB8303C6F3990105EB80008900069038680B9382
:2066B0000A010021803206F049FD4849DFF820A109682846AAF1880290470746B94518BF8A
:2066D0006FF001007ED128465546394605F168029047019831460AF01BFD002818BF0120FA
:2066F00070D1029831460AF013FD002818BF022068D103980199A84704980299A8470098F2
:2067100081680598A847334B0399059A20469946C847012802D1BD0066590EB1032051E05C
:2067300020460021424606F009FD0499059A2046C847012801D166590EB1042042E0274B5C
:20675000254D079803991E462A46B047089804992A46B047079909980A46B0470A98099941
:20677000079AB0471E4D0B9807992A46B04720460021282206F0E2FC1A4B0A990B9A2046A4
:206790009946C847203520462A460146C847089958460A46B04706980021424606F0CEFCED
